:020000040800F2
:10000000009000202D1600089108000895080008AF
:1000100000000000000000000000000000000000E0
:100020000000000000000000000000009908000827
:1000300000000000000000009D080008A108000862
:100040007D1600087D1600087D1600087D16000844
:100050007D160008B10800087D1600087D1600080E
:100060007D160008C1080008D1080008E90800084A
:100070007D1600087D1600087D1600087D16000814
:100080007D1600087D1600087D1600087D16000804
:100090007D1600087D1600087D1600087D160008F4
:1000A0007D160008F9080008090900087D160008F7
:0C00B0007D1600087D1600087D16000873
:1000BC0010B5064C2378002B07D1054B002B02D032
:1000CC00044800E000BF0123237010BD9400002001
:1000DC00000000005CB60108044B10B5002B03D0E7
:1000EC000349044800E000BF10BDC04600000000FA
:1000FC00980000205CB6010802780B78002A03D027
:10010C00013001319A42F7D0D01A70470023C25CFB
:10011C000133002AFBD1581E70470000002243080F
:10012C008B4274D303098B425FD3030A8B4244D3B3
:10013C00030B8B4228D3030C8B420DD3FF220902F5
:10014C0012BA030C8B4202D31212090265D0030BB4
:10015C008B4219D300E0090AC30B8B4201D3CB03AA
:10016C00C01A5241830B8B4201D38B03C01A5241EC
:10017C00430B8B4201D34B03C01A5241030B8B42EE
:10018C0001D30B03C01A5241C30A8B4201D3CB02D9
:10019C00C01A5241830A8B4201D38B02C01A5241BE
:1001AC00430A8B4201D34B02C01A5241030A8B42C1
:1001BC0001D30B02C01A5241CDD2C3098B4201D3D9
:1001CC00CB01C01A524183098B4201D38B01C01A57
:1001DC00524143098B4201D34B01C01A52410309CE
:1001EC008B4201D30B01C01A5241C3088B4201D37D
:1001FC00CB00C01A524183088B4201D38B00C01A2A
:10020C00524143088B4201D34B00C01A5241411A50
:10021C0000D20146524110467047FFE701B500205D
:10022C0000F0F0F802BDC0460029F7D076E7704721
:10023C0003460B437FD4002243088B4274D303093B
:10024C008B425FD3030A8B4244D3030B8B4228D3DC
:10025C00030C8B420DD3FF22090212BA030C8B4202
:10026C0002D31212090265D0030B8B4219D300E0A2
:10027C00090AC30B8B4201D3CB03C01A5241830B27
:10028C008B4201D38B03C01A5241430B8B4201D3D7
:10029C004B03C01A5241030B8B4201D30B03C01A00
:1002AC005241C30A8B4201D3CB02C01A5241830A7A
:1002BC008B4201D38B02C01A5241430A8B4201D3A9
:1002CC004B02C01A5241030A8B4201D30B02C01AD3
:1002DC005241CDD2C3098B4201D3CB01C01A52413A
:1002EC0083098B4201D38B01C01A524143098B42C3
:1002FC0001D34B01C01A524103098B4201D30B01AC
:10030C00C01A5241C3088B4201D3CB00C01A5241D0
:10031C0083088B4201D38B00C01A524143088B4295
:10032C0001D34B00C01A5241411A00D2014652412E
:10033C00104670475DE0CA0F00D04942031000D34D
:10034C004042534000229C4603098B422DD3030AA2
:10035C008B4212D3FC22890112BA030A8B420CD3B2
:10036C00890192118B4208D3890192118B4204D3DB
:10037C0089013AD0921100E08909C3098B4201D35B
:10038C00CB01C01A524183098B4201D38B01C01A95
:10039C00524143098B4201D34B01C01A524103090C
:1003AC008B4201D30B01C01A5241C3088B4201D3BB
:1003BC00CB00C01A524183088B4201D38B00C01A68
:1003CC005241D9D243088B4201D34B00C01A52413F
:1003DC00411A00D20146634652415B10104601D3CC
:1003EC004042002B00D54942704763465B1000D356
:1003FC00404201B5002000F005F802BD0029F8D0FC
:10040C0016E770477047C0461C2101231B04984215
:10041C0001D3000C10391B0A984201D3000A083989
:10042C001B09984201D30009043902A2105C401840
:10043C007047C046040302020101010100000000E4
:10044C000000000010B5002803D000F005F80130C2
:10045C0010BD0020FCE7C046414208401C2101238E
:10046C001B04984201D3000C10391B0A984201D38B
:10047C00000A08391B09984201D30009043902A269
:10048C00105C401A7047C0461B1C1D1D1E1E1E1EF4
:10049C001F1F1F1F1F1F1F1F10B582B06B460C00A4
:1004AC000020D91D00F0FAFC002807D16B46DB793F
:1004BC00052B05D8104A9B00D3589F460023A373E5
:1004CC0002B010BD13236360123BA373F8E70A2339
:1004DC006360093BA373F3E70B2363600A3BA373CD
:1004EC00EEE709236360083BA373E9E71423636019
:1004FC00133BA373E4E7C04684B6010830B505008E
:10050C0000200B5E0224085FCC8887B00134241ACB
:10051C0024B20294898800900131C91A09B2019160
:10052C000020012100F088FE10F0E0FB0590002077
:10053C0000F0F8FE059810F0E7FB0590280010F08D
:10054C004DFB07B030BDC04600B593B0382200213A
:10055C0004A81BF06DF81022002168461BF068F807
:10056C008020800019F0E4F8022304930B930C9381
:10057C000E330E9380239B020F93802380229B04C7
:10058C0052001093C023402107920022DB0504A8DF
:10059C00089209910D92119319F0FAF8002801D0E4
:1005AC0072B6FEE707220223009201930022002379
:1005BC00022168460292039319F0A8FB002801D08F
:1005CC0072B6FEE713B000BDF0B5CE46474680B517
:1005DC008BB018F0BBFBFFF7B7FF1422002104A867
:1005EC001BF026F804237E4CA020626B7D491A4335
:1005FC006263626BC00513400093009B2023626B07
:10060C0000251A436263626B00261340012201939A
:10061C00019B636B904613436363636B0227134028
:10062C000293029B636B013213436363636B9146CA
:10063C0013400393013A039B19F074F880210122B3
:10064C006948C90119F06EF88222002392016748AB
:10065C0004A904920593069518F0C6FEC423A020A5
:10066C0001229B0304A9C00504920593069518F07A
:10067C00BBFE02220123A020049205930122022337
:10068C0004A9C0050692079318F0AEFE0023584A41
:10069C00554804A904920593069518F0A5FE8022EE
:1006AC000123D201504804A904920593069607979A
:1006BC0018F09AFEC022A0200123920004A9C005C4
:1006CC00049205930696079718F08EFE8023494AEC
:1006DC00DB03116805200B4313600321002218F083
:1006EC0079FB052018F0A8FB4246A36B02211343AB
:1006FC00A363A36B0920134004930022049B18F0FE
:10070C0069FB092018F098FB002201210A2018F03F
:10071C0061FB0A2018F090FB002200210B2018F03E
:10072C0059FB0B2018F088FB3348344B8580036051
:10073C00434645618561036218F0B4FB002801D083
:10074C0072B6FEE70021080000F0B0FC002801D0D2
:10075C0072B6FEE700F002FF002801D072B6FEE789
:10076C00010000F093FB002801D072B6FEE700F008
:10077C003FFD041E01D072B6FEE704F093FBB423D8
:10078C001F4D22001F495B01280010F05BF91E4C25
:10079C00200010F033F91D4B200023601C4BE5604A
:1007AC00636110F05DF904000FF0D2FC0100200031
:1007BC0001F016F8174C200010F028FA164B200008
:1007CC0063604B46237010F031FA144B022418600E
:1007DC0017F000FA12F04EFA200018F0DDFAF9E7E3
:1007EC0000100240020300000004005000080050FA
:1007FC001310000000000140182E002000300240B1
:10080C00FC2D0020B0000020B02D0020F000400195
:10081C00090500083C2E0020A5040008582E0020D5
:10082C0001220C4B00B5196CC02011431964196CD2
:10083C0083B00A4080210092009ADA6B49050A4382
:10084C00DA63DB6BC0000B400193019B18F0B6FA26
:10085C0003B000BD00100240084B026882B09A42FF
:10086C0001D002B070478020054A4001916B0143D2
:10087C009163936B03400193019BF2E700300240BC
:10088C0000100240FEE7C046FEE7C0467047C04677
:10089C007047C04610B518F06DFA012010F018FA28
:1008AC0010BDC04610B5024818F060FD10BDC04622
:1008BC008031002010B5024818F0E0FC10BDC04695
:1008CC00C82E002010B5034818F0D8FC024818F0C8
:1008DC00D5FC10BD6C2E0020802F002010B50248D6
:1008EC0018F0CCFC10BDC046242F002010B50248D7
:1008FC001AF0ACFD10BDC046DC2F002010B502482C
:10090C001AF0A4FD10BDC0466830002070B5A025BB
:10091C0004000E4A0E49136CED050B4013642800BD
:10092C00202118F06DFE2800402118F069FE80216E
:10093C00280018F065FE606D18F092FBA06D18F0A1
:10094C008FFB192018F084FA70BDC04600100240CD
:10095C00FFEFFFFF0F4A1049D36B70B50F4D0B40E3
:10096C00D36304002800042118F04AFE2800082153
:10097C0018F046FE80210A48890118F041FE606D8E
:10098C0018F06EFBA06D18F06BFB1A2018F060FAD3
:10099C0070BDC04600100240FFBFFFFF00080050B2
:1009AC0000040050F0B5D6464F464646804680209F
:1009BC003A4BC0B5196C4001014319641A6C88B0EC
:1009CC0002400092009A0122596BA02411435963F2
:1009DC005B6B00251A400192022603272022019B03
:1009EC000223E405200002A90292039304960597C2
:1009FC00069518F0F9FC40220223200002A902926D
:100A0C00039304960597069518F0EEFC80220223BA
:100A1C0002A920000292039304960597069518F0FC
:100A2C00E3FC1F4C1F4B8027236011236360013BA9
:100A3C009A46A360703399462361802680237F00F9
:100A4C00F6009B012000E5606761A661E561236209
:100A5C0018F08EFA43465C65A362134C134B2000CE
:100A6C002360534663604B46A5602361E560676174
:100A7C00A661E561256218F07BFA4346002202214B
:100A8C009C651920A36218F0A5F9192018F0D4F967
:100A9C0008B0E0BCBA46B146A846F0BD0010024012
:100AAC00C82E0020080002406C2E00201C000240C2
:100ABC00F0B5CE464746060080203F4B80B5D96B3B
:100ACC00C0010143D963DA6B8BB002400192019AE9
:100ADC000422596B022411435963596B03250A40B4
:100AEC000292029A0222596B344F114359635B6B89
:100AFC0038001A400392039B0422022304920593AC
:100B0C00012304A9984606940795089318F06CFCE9
:100B1C0008220223049205934346380004A9069444
:100B2C000795089318F060FC802206940795022321
:100B3C000025920104A9224804920593089518F007
:100B4C0053FC204C204B8027236013236360033B12
:100B5C00A360703399462361FF00803320009846D0
:100B6C00E5606361A761E561256218F001FA7465BF
:100B7C00A662164B164C2360122363604B4623610E
:100B8C0043466361802320005B012362A560E5601E
:100B9C00A761E56118F0ECF9002201211A20B46577
:100BAC00A66218F017F91A2018F046F90BB0C0BC61
:100BBC00B946B046F0BDC0460010024000080050D7
:100BCC0000040050802F00203000024044000240FE
:100BDC00242F0020084A10B51368002B09D0013BC4
:100BEC001360002B05D1054819F04CFD002800D1ED
:100BFC0010BD08204042FBE7642E0020DC2F0020B3
:100C0C0080230A005B01010010B5054819F0B6FD00
:100C1C0043425841434206201840063810BDC04696
:100C2C00DC2F002080230A005B01010010B5054871
:100C3C001AF024F843425841434206201840063823
:100C4C0010BDC046DC2F00200A0010B5010005487D
:100C5C001AF0D4F943425841434206201840063852
:100C6C0010BDC046DC2F0020084A10B51368002BBD
:100C7C0009D0013B1360002B05D1054819F002FD8A
:100C8C00002800D110BD08204042FBE7682E002050
:100C9C006830002080230A005B01010010B5054874
:100CAC0019F06CFD43425841434206201840063867
:100CBC0010BDC0466830002080230A005B01010093
:100CCC0010B5054819F0DAFF43425841434206205B
:100CDC001840063810BDC046683000200A0010B518
:100CEC00010005481AF0FCFA4342584143420620E1
:100CFC001840063810BDC04668300020E0220F4B6B
:100D0C0010B503608223D200C26080225B00436076
:100D1C00002392008261F93AFF3AC261013A836082
:100D2C000361436103624362836203634363C26290
:100D3C0019F0E4FB431E9841C0B210BD00300140D5
:100D4C0070B51A4B1A4A1B4C23601368591C11605E
:100D5C00002B01D0002070BD20001AF025FC0028CB
:100D6C00F8D1154D2B68002B15D15D22A3542732D9
:100D7C00A3500432A35008212000104A19F0A2FC01
:100D8C00002810D1092120000D4A19F09BFC0028E5
:100D9C0009D101232B602000FFF7B0FF0028D9D028
:100DAC0008204042D7E70A204042D4E700300140F7
:100DBC00642E0020DC2F00205C2E0020B1090008DE
:100DCC0019090008E0220F4B10B503608223D200F2
:100DDC00C26080225B004360002392008261FA3A79
:100DEC00FF3A836003614361C361036243628362C0
:100DFC0003634363C26219F081FB431E9841C0B286
:100E0C0010BDC0460038004070B51A4B1A4A1B4C36
:100E1C0023601368591C1160002B01D0002070BD99
:100E2C0020001AF0C1FB0028F8D1154D2B68002BBF
:100E3C0015D15D22A3542732A3500432A3500821AC
:100E4C002000104A19F03EFC002810D10921200086
:100E5C000D4A19F037FC002809D101232B60200022
:100E6C00FFF7B0FF0028D9D008204042D7E70A206E
:100E7C004042D4E700380040682E00206830002043
:100E8C00602E0020BD0A000861090008024B80009A
:100E9C00195000207047C046F4300020002370B574
:100EAC0005000C000B702F48802118F035FC002831
:100EBC0002D10123237070BD80212B48490118F009
:100ECC002BFC002821D1294BAD00EB58002B18D05E
:100EDC00012B3ED0022B29D0032B13D1042011E07F
:100EEC000121214818F018FC002821D11F4BAD001E
:100EFC00EB58002BF2D0012B18D0022B29D0032B4E
:100F0C0000D1022020700020D5E71021164818F0DF
:100F1C0003FC0028E4D1154BAD00EB58002B18D086
:100F2C00012BEED0022BD9D0032BEBD10520E9E716
:100F3C0002210D4818F0F0FB00280CD10B4BAD0032
:100F4C00EB58002BF2D0012BC8D0022BD9D0032B9D
:100F5C00D8D10320D6E72078431E9841800004386E
:100F6C00A9E7C0460008005000040050F4300020EF
:100F7C000B2040427047C04610B517F00DFF002003
:100F8C0010BDC04610B517F001FF10BD70B5A02400
:100F9C008025E405AD00A56289B2FFF731FEA5619D
:100FAC0070BDC046F8B5A02480258027054EAD0045
:100FBC00FF01E405A56289B2B762FFF721FEB761B4
:100FCC00A561F8BD00040050F8B5104B4746984693
:100FDC008023CE46DB01994680B5A0268027434668
:100FEC004A46F605BF00B7620C009A620121050063
:100FFC00FFF706FE43464A4628009A61A1B2FFF766
:10100C0011FEB761C0BCB946B046F8BD0004005033
:10101C00A023802210B5DB0592009A6289B2FFF7FB
:10102C0013FE10BD10B5FFF7D5FD10BD70B5A02493
:10103C000225E4056420A56217F0AEFE6420A561CC
:10104C0017F0AAFE802380229B00A3610F4BD201D4
:10105C009A62FFF775FE041E01D0200070BDC021FE
:10106C000B4DC904280018F079F901212800094A10
:10107C0018F060F902212800074A18F05BF90021EA
:10108C00064A074819F01EFBE7E7C046000400506B
:10109C0080310020951300087913000845130008CF
:1010AC00DC2F00200B2040427047C046F0B5CE46E6
:1010BC00474680B50D008FB0002800D06DE00329A5
:1010CC006BD800F06FF90024002805D020000FB079
:1010DC00C0BCB946B046F0BD3449354B354F0B60FA
:1010EC00354B38004B60354B01940B61344BCB6066
:1010FC00344B4B61344B8B61344BCB61344B0B62B7
:10110C00344B4B62344B8B6217F0AEFD002847D149
:10111C00324B334E98461F6028233000F36119F090
:10112C00EDF900283FD12F4B01A999464346186889
:10113C004B469B689847002832D12B4B019A9A4218
:10114C002ED13000F46119F0D9F900282BD14A4680
:10115C00264B03941A604823FC546B461C7255238F
:10116C006A460493543B137709221D230892099372
:10117C00022201230A920B93032202230C920D9359
:10118C00434618684B4606941B68059502A9984778
:10119C00041E9BD00524644298E70224644295E720
:1011AC000724644292E7082464428FE7F830002059
:1011BC00391000082C310020311000087D0F000878
:1011CC00B10F0008990F00081D100008D50F00087A
:1011DC00B1100008910F0008850F00082431002081
:1011EC00DC2F00203800002052858500283100209B
:1011FC0070B50021050000F0EDF8002811D10C4B62
:10120C001B68DB68002B0FD00A4A10689847C44350
:10121C000523E4171C402800053C00F0CBF8200007
:10122C0070BD03246442FAE70B246442F7E7C0461E
:10123C002831002024310020F0B5C6460C001900DE
:10124C00344B00B51B6805005F69160082B0002F97
:10125C0056D0314B089A18680A9B0093099BB847E3
:10126C0000284DDB002C2DD10A9C099B00215C43EE
:10127C002800640000F0AEF8002844D1274B9846B3
:10128C005B69002B42D0F023254F1B013800FB601B
:10129C0019F034F9434661085B6930009847C44340
:1012AC000523E4171C40E0233800DB00FB6019F039
:1012BC0025F92800053C00F07DF8200002B080BC28
:1012CC00B846F0BD0A9C099B00215C4328006400D1
:1012DC0000F080F8002816D1104DAB69002B15D00A
:1012EC00F0230F481B01C36019F008F9AB696108C2
:1012FC0030009847C4430523E4171C40053CDCE749
:10130C0008246442D9E703246442D6E70B246442E0
:10131C00D3E7C0462831002024310020F8300020CB
:10132C00DC2F002010B5002800D010BD00F070F8A4
:10133C00FBE7C0467047C0460A4B10B5984200D038
:10134C0010BDA0238022DB0592009A61E023DB0014
:10135C00C36019F0D3F8002000F034F80020FFF738
:10136C00E9FFEDE7DC2F00207047C04610B50221E5
:10137C00044818F021F8002200210020FFF7F4FFA8
:10138C0010BDC0468031002010B50121044818F072
:10139C0013F8002201210020FFF7E6FF10BDC04624
:1013AC00803100200022024B00201A707047C0468A
:1013BC008C3100200022024B1A5400207047C0468A
:1013CC008C3100200022024B1A5400207047C0467A
:1013DC008C310020F8B504000D0017F0D7FC0B4F32
:1013EC0006003B5DD8B2002B0BD0002D05D10BE0D5
:1013FC0017F0CCFC801BA84206D23B5DD8B2002B68
:10140C00F6D101333B55F8BD0320FCE78C310020AD
:10141C00024A135C002BFCD1002070478C31002059
:10142C000B2040427047C046032330B583B0050003
:10143C0001A803700B0C43700B0A83701400A023DB
:10144C008022DB055200C17004219A62FFF722FC56
:10145C00002801D003B030BD2800A1B2FFF73EFC3C
:10146C00F8E7C046032330B583B0050001A803702C
:10147C000B0C43700B0A83701400A0238022DB0535
:10148C005200C17004219A62FFF704FC002806D0B8
:10149C00A0238022DB0552009A6103B030BD2800E6
:1014AC00A1B2FFF709FCF3E710B5FFF7DDFB10BDA8
:1014BC00F0B585B0FFF7A8FC041E02D0200005B0E3
:1014CC00F0BDA02580266623ED05760002AAAE624B
:1014DC000121137103A8FFF7DDFBAE61041EEDD1F2
:1014EC00992302AAAE620121137103A8FFF7D2FB64
:1014FC00AE610400142017F04FFC002CDED1104F0D
:10150C00104B114A1F60114B3800136020221B68CE
:10151C00BC5401939847053C0028CFDB01210C4AB1
:10152C00786A19F0CFF8F02302AA9B00938002216D
:10153C00AE6203A8FFF7AEFBAE610400BEE7C04687
:10154C00B8310020B0310020B431002004F3010880
:10155C00E51500080B2040427047C04610B500202E
:10156C0000F04EF8002801D0002010BD0E4B0F49A2
:10157C0018600F4B18600F4B0F480B600F4B4B60F4
:10158C000F4BCB600F4B0B610F4B4B610F4B8B61B8
:10159C0090231B068B600E4B436216F0F5FF002860
:1015AC00E2D005204042E0E7B0310020903100202D
:1015BC00B4310020BD140008B8310020B514000867
:1015CC002D1400086115000871140008351400086A
:1015DC00683000207047C046084B10B55B6A8342E8
:1015EC0000D010BDA0238022DB0552009A610020A0
:1015FC0000F00EF80020FFF7EDFFF2E7B831002005
:10160C000022024B00201A707047C046E0310020C7
:10161C000022024B1A5400207047C046E0310020D3
:10162C000D48854617F06AFB0C480D490D4A0023FE
:10163C0002E0D458C4500433C4188C42F9D30A4A7B
:10164C000A4C002301E013600432A242FBD319F0D0
:10165C00AFFFFEF7B9FFFEE700900020000000206E
:10166C0094000020A8F3010894000020347D002091
:10167C00FEE7000010B50022C9B209F0E3F910BD75
:10168C0010B509B204F0A2FA10BDC04610B509B2EB
:10169C0004F084FA10BDC04670B50500006809F06E
:1016AC0025FC040000222721006900F051FB0022D8
:1016BC002821606900F04CFB6069002803D02823C6
:1016CC00E35C9B070FD40022282101206261635C3C
:1016DC00834363542868A261383108F07FFE206987
:1016EC0004F028FF70BD09F08BFAECE770B504002C
:1016FC0009F0FCFB051E22D00669002E0CD000223E
:10170C002521300000F024FB2B69002B04D0002293
:10171C002621200000F01CFB2C61002C0CD0002298
:10172C002721200000F014FB2B69002B04D0002291
:10173C002821300000F00CFB200004F0FBFE70BDF3
:10174C0070B50500006809F0D1FB04000FF008FA31
:10175C00002808D0006960612868002226212061D9
:10176C0000F0F6FA70BD0FF0FBF90028F2D1F2E7A9
:10177C00030010B5002801D0186910BD0FF0F0F966
:10178C0003000020002BF7D1F7E7C046030010B58B
:10179C00002801D0586910BD0FF0E2F903000020B9
:1017AC00002BF7D1F7E7C046030010B5002801D095
:1017BC00D86910BD0FF0D4F903000020002BF7D12D
:1017CC00F7E7C046030010B5002801D0186A10BD19
:1017DC000FF0C6F903000020002BF7D1F7E7C04645
:1017EC0070B504000D00002804D0636AA560032BBB
:1017FC0005D070BD0FF0B4F9041EFAD0F5E7E3681C
:10180C00186809F0B1FB0028F3D1E368586809F0B7
:10181C00ABFB0028EDD1E368986809F0A5FB002824
:10182C00E7D1E36818680AF0A9FDE2E710B50028D3
:10183C0001D0806810BD0FF093F9FAE7F0B5DE46E1
:10184C0057464E464546E0B5A1B099462AAB1B78A3
:10185C00884692469B46060009F048FB04000FF0B0
:10186C007FF9071E00D187E0A0693F69002802D0EC
:10187C00B84200D089E06069A661002804D0282312
:10188C00E35C9B0700D596E04246042100250A3A0A
:10189C00D2B291426D415A46282352001543E25C64
:1018AC0001398A430D4015430021E55430000FF0F7
:1018BC0085FB0FF055F9002800D185E00069002167
:1018CC000FF07CFB00220021300004F033F90FF004
:1018DC0047F9002800D17DE000690022002104F0C6
:1018EC0029F900226021300008F078FD0FF038F95A
:1018FC00002800D174E000690022602108F06EFD20
:10190C0053464A4613435BD068460FF03FFB894B66
:10191C0010A80293884B0096039353460A934B46A8
:10192C005D420B950FF032FB23691B9510935346C8
:10193C001A9343460E2B0DD89900804B5B589F464B
:10194C007F4B200011930FF011F9002340421793A5
:10195C001893199000222521380000F0F9F96846F7
:10196C000FF016FC10A80FF013FC21B0F0BCBB4616
:10197C00B246A946A046F0BD0FF0F2F8071E00D003
:10198C0072E7A069002800D175E7FFF7AFFE0021D0
:10199C00A0690FF013FB00220021A06904F0CAF823
:1019AC0000226021A06908F019FD2823E35C9B0745
:1019BC001CD4A7695FE709F023F90023636163E78F
:1019CC003000FFF793FED0E70FF0CAF8002800D0E4
:1019DC0074E774E70FF0C4F8002800D07CE77CE7CC
:1019EC000FF0BEF8002800D085E785E7380009F035
:1019FC0007F9A7693FE7524B200001930FF0B6F8A7
:101A0C0000234042079008900993A3E74D4B200018
:101A1C0011930FF0BFF8002319901793189399E7BF
:101A2C00494B0193002307930893FF33099391E7E4
:101A3C00444E200001960FF0ADF80025404207906F
:101A4C0008902000099511960FF0A4F81795189599
:101A5C0019907FE73B4E200001960FF09BF8002574
:101A6C00079008902000099511960FF093F84042CA
:101A7C001795189519906DE7314E200001960FF0CF
:101A8C0075F80025404207900890200009951196A2
:101A9C000FF06CF81795189519905BE7284E2000FD
:101AAC0001960FF063F80025079008902000099527
:101ABC0011960FF05BF8404217951895199049E76D
:101ACC00204B200001930FF065F899E71D4B200087
:101ADC0001930FF05FF8002307900890099339E702
:101AEC00194B1193FF23179318930023199331E784
:101AFC00134B200001930FF039F800230790089046
:101B0C00099327E70E4B019300230793089309933E
:101B1C0020E70C4B200011930FF03CF815E7084B15
:101B2C00200011930FF022F80023199017931893AB
:101B3C0010E7C0464D170008A51600089CB6010812
:101B4C00991600088D16000881160008002300B5B0
:101B5C0083B0002200210093FFF770FE03B000BD9C
:101B6C00030010B5002806D0AA2252009B58D817A3
:101B7C00C01AC00F10BD0EF0F3FF03000020002BA5
:101B8C00F8D0F1E7F0B54546DE4657464E46E0B58F
:101B9C0083B0050000F0FAFD00280AD000688368C5
:101BAC00002B01D0297A98472B7E9A076AD4DB0741
:101BBC0066D46B6899681A00019300293BD08B7E20
:101BCC009B0638D0CB68002B00D1B9E002208146AF
:101BDC00013880467F30002483461F68002F04D0D4
:101BEC00082018561E7A00280CDB01348B7E9B06CD
:101BFC009B0EA3424ED9CE686300B4461B199B00C2
:101C0C006344EAE7802E04D058468643287A8642FD
:101C1C00EBD15B682800EB60B8474A462B7E1A4232
:101C2C0030D142461A422BD16B68013499681A00A4
:101C3C0001930029DAD1019B1C68002C15D1536843
:101C4C00002B1FD0297E49071CD4297A233901295E
:101C5C0063D86B602800FFF795FF01384342584169
:101C6C00C0B210E02468002C42D0E368002BF9D0FD
:101C7C00002229002000EA6098472B7EDB0735D52F
:101C8C00002000E0012003B0F0BCBB46B246A946E0
:101C9C00A046F0BD01980468002CE6D1002BCED0F4
:101CAC00CB68002BCBD00121884619680024022672
:101CBC00002909D0082018561F7A002804DB002FB1
:101CCC001FD0287AB8421CD0906801340028B6D0B6
:101CDC00837E9B069B0E9C42B1D263001B1999001C
:101CEC00C3685B1819680029E4D1EDE76B680193B0
:101CFC00019A91680029A2D08B7E9B069B0ECFD1B6
:101D0C009DE75B682800EB6088472B7E1E42B9D1AB
:101D1C0042461A42B4D16A68D6E780211000C90144
:101D2C0003F088F90028ADD02B7A113BDBB21B2BCA
:101D3C0003D8064A9B00D3589F466B685B6888E7BC
:101D4C00019B1C68002C00D08FE7A9E7D8B60108CE
:101D5C0010B588B0002817D06B460190197200237B
:101D6C0003936B46049207221B7E084C93436A46EE
:101D7C00137623680090684605932260FFF702FFF4
:101D8C00059B236008B010BD0120FBE7E431002067
:101D9C0010B50C0000280FD0006800280AD0C368CA
:101DAC00002BF9D000222100E26098470120237E0D
:101DBC00984310BD0120FCE74B681868EDE7C0465E
:101DCC000068704740687047037A7F20184070475E
:101DDC0000697047C0687047024B1A68501C186045
:101DEC007047C046000000200A4B1B68002B10D027
:101DFC00012105E01A68824205D05B69002B08D0EE
:101E0C005A688242F6D11A7E0A431A765B69002B15
:101E1C00F6D17047E4310020F0B5C64600B5070096
:101E2C000E001500984603F021F93F200100BC6814
:101E3C00A27E93069B0E013319408C460B00824305
:101E4C00490013436144A376E068890010F0E6F87A
:101E5C00BB68E060DA68002A0ED0987E8006830E9C
:101E6C00400EC018434680000C38101806600572EE
:101E7C00436080BCB846F0BDFEE7C046037A013B28
:101E8C000F2B01D8006970470020FCE7027A030091
:101E9C00143A0020052A00D818697047037A132BCE
:101EAC0000D0704702691388181C1BB28B4201DBEF
:101EBC001080F6E7081C1080F3E7C046F8B5012344
:101ECC0057464E464546DE469B467F33E0B589462F
:101EDC000600904600279A46C568002D5ED0002F5C
:101EEC0000D16DE029003000C0470500B8424ED04B
:101EFC00002D53D0286803F0ABF853460342ECD1C5
:101F0C002C68002C05D110E0200009F017F8041EF5
:101F1C000BD00121200003F08DF80028F4D0012112
:101F2C00200003F087F80028D7D1F368AB422ED0FD
:101F3C00002B58D01B68002098460EF09DFE041E06
:101F4C0000D195E000230027994604E020000EF014
:101F5C0093FE041E11D0200000F01EFC236D9E4247
:101F6C00F4D1022800D188E027000428EED120000B
:101F7C000EF082FEA146041EEDD14B46002B68D01C
:101F8C004A460F214046FFF7E3FE012827D00020E8
:101F9C00F0BCBB46B246A946A046F8BD0822337E2B
:101FAC001A420FD1002FF2D15B46002BEFD030003C
:101FBC00C8470700002FEAD000233D009B4699E755
:101FCC002F008FE75B46002BE1D03000C847002381
:101FDC0005009B46002F00D08AE70700EAE7F3686C
:101FEC00186804F0A7FA0020F5602F680EF044FE84
:101FFC00041E56D000230025984604E020000EF065
:10200C003BFE041E10D0200000F0C6FB236D9E4248
:10201C00F4D102283BD025000428EFD120000EF08B
:10202C002BFEA046041EEED14346002B1CD042468C
:10203C000E213800FFF78CFE0128A8D1F368186830
:10204C0004F078FA3369002B30D030009847012027
:10205C009EE7002F0CD0B9460F214A464046FFF7A9
:10206C0077FE012893D1BAE7002D1AD0A846DEE7F7
:10207C0000200EF001FE814682E7A1460F214A4660
:10208C004046FFF765FE012800D080E7A7E7A04691
:10209C000E2142463800FFF75BFE012800D076E7A0
:1020AC00CCE700200EF0E8FD8046C0E701206FE78A
:1020BC000822037E70B51D0713430400ED0F037651
:1020CC00DAB25B0711D4D30722D4154A1549FFF7AE
:1020DC00F5FE6369002B01D000281CD00822237E5A
:1020EC00ED0093432B43237670BDD30709D40E4ADE
:1020FC000E49FFF7E3FE6369002BEFD00028EDD10A
:10210C0002E04369002BE9D0002120009847E5E765
:10211C004369002BE2D0012120009847DEE7C0463E
:10212C00651E01084D1E01086D1E0108591E01088F
:10213C00F8B5CE46474680B5060002F091FF051E65
:10214C0065D0037EDA0762D49A0725D50222934321
:10215C000376C368002B1FD01B689846002B1BD03E
:10216C0000200EF089FD002304000027994600286A
:10217C005CD100200EF080FD814603E04B46002B25
:10218C0000D198E04A460E214046FFF7E1FD0128B8
:10219C0002D1404604F0CEF928000FF051FE041E87
:1021AC0006D134E0210028000FF056FE041E2ED07C
:1021BC0023689E42F6D1EB68002B42D01F68BE42CA
:1021CC003FD000200EF058FD0023061E984699467D
:1021DC0005D185E030000EF04FFD061E0DD030000D
:1021EC0000F0DAFA336D9D42F4D1022800D175E08B
:1021FC00B0460428EED1B146ECE74B46002B63D039
:10220C004A460F213800FFF7A3FD012815D0C0BCAA
:10221C00B946B046F8BD022849D02700042800D1A1
:10222C00A14620000EF028FD041EA7D0200000F0CF
:10223C00B3FA236D9D42F4D1EDE7EB68186804F016
:10224C0079F92B69EC60002B02D028009847EC68D8
:10225C002368002098460EF00FFD0026040000278E
:10226C00002805D135E020000EF006FD041E10D02C
:10227C00200000F091FA236D9D42F4D1022818D071
:10228C0026000428EFD120000EF0F6FC2700041ED7
:10229C00EED1002F14D03A000E214046FFF758FD26
:1022AC000128B4D1EB68186804F044F9AFE7A146F3
:1022BC0068E72700EFE7002F00D15AE7B94661E73E
:1022CC00002E06D03700E6E74346002B08D0C14667
:1022DC0096E700200EF0D0FC0700DCE7B1468FE754
:1022EC0000200EF0C9FC81468AE7C04610B51C21BF
:1022FC0001480FF043FD10BD8033002010B50A4893
:10230C000FF044FD041E0ED004210FF037FD002306
:10231C000F22E36023616361237E200093430C2230
:10232C001343237610BDFEE780330020014B186069
:10233C007047C046E8310020014B18687047C04612
:10234C00E831002070B504000D0000280CD00FF00F
:10235C0077FD011E05D108E020000FF07DFD011E68
:10236C0003D00B68AB42F7D170BD280002F078FEA9
:10237C0000281AD0AB689A68002A03D0D268126879
:10238C00AA4210D020009C600FF018FD061E09D048
:10239C00056020000FF054FD8642E5D12000FFF7C8
:1023AC0087FEE1E7FEE7FFF783FEAB68002BE9D180
:1023BC00280002F05BFEAB68E4E7C046F8B5CE46F9
:1023CC00474680B5060002F04BFE051E1ED0C368C2
:1023DC00002B02D01B68B3421CD028000FF030FD3C
:1023EC00041E04D112E00FF037FD041E0ED023683A
:1023FC0021002800B342F6D10FF0F8FC20000FF0BA
:10240C00F1FDB368002B01D000229A60C0BCB94624
:10241C00B046F8BD0122037E1A4201D093430376E5
:10242C0028000FF00DFDEA68824237D008212B7E80
:10243C001C070B43E40F2B76D9B25B0710D4CB07E8
:10244C0054D42800364A3749FFF738FD6B69002B06
:10245C0015D0002813D1012128009847EA680FE015
:10246C00CB073FD42800304A3049FFF727FD6B6972
:10247C00002B04D0002802D1002128009847EA68DC
:10248C0008212B7EE4008B4323432B76002AA4D017
:10249C0013689E42A1D10023EB609EE728000FF049
:1024AC00D5FCEA689042C1D10368002099460EF031
:1024BC00E3FB0023040098460027002805D129E0FF
:1024CC0020000EF0D9FB041E14D0200000F064F99B
:1024DC00236D9D42F4D1022815D0A0460428EFD1DB
:1024EC002700EDE76B69002BC6D1C9E76B69002BA0
:1024FC00B1D1C5E7002F08D03A000F214846FFF7AD
:10250C0027FCEA68C2E72700F6E74346002B01D018
:10251C004746F1E700200EF0AFFB0700ECE7C046A2
:10252C00651E01084D1E01086D1E0108591E01088B
:10253C0010B5002801D0FFF7FBFD10BD037E10B5D0
:10254C000400DB0709D4084A0849FFF7B7FC6369A4
:10255C00002B01D0002803D010BD4369002BFBD009
:10256C00012120009847F7E7651E01084D1E010860
:10257C00037E10B50400DB0709D4084A0849FFF7AD
:10258C009DFC6369002B01D0002803D010BD43696A
:10259C00002BFBD0002120009847F7E76D1E0108A7
:1025AC00591E010810B582B0019100280BD0C368E8
:1025BC00002B08D01C68002C05D08021200002F0D4
:1025CC0049FD002802D0012002B010BD0D212000D1
:1025DC0001AAFFF7BDFBF7E7F0B5C646050000B54D
:1025EC0000283BD0037E9A07D20F8A4236D00122B4
:1025FC0011400132490093430B430376C368002B0F
:10260C002CD01F68002F29D000200EF035FB0023A2
:10261C00040000269846002805D12CE020000EF07E
:10262C002BFB041E10D0200000F0B6F8236D9D4249
:10263C00F4D102281DD026000428EFD120000EF082
:10264C001BFBA046041EEED14346002B0DD0424688
:10265C000E213800FFF77CFB012802D080BCB84665
:10266C00F0BD380003F066FFF8E7002E03D0B0464B
:10267C00EDE7A046EBE700200EF0FEFA8046E6E719
:10268C00002804D0C068002800D0006870470020E3
:10269C00FCE7C046002803D0007E8007C00F7047BF
:1026AC000020FCE710B50FF0DFFB10BD0822F0B5E1
:1026BC00C64617004378040000B51F401A4225D1C6
:1026CC00006A304DA66A2860002812D02E4B0821D3
:1026DC001A689846FFF73CFB63789A0700D52F6081
:1026EC00012299070FD4002E2FD0002323622364DC
:1026FC006364002E07D0200001F010FD63789B0767
:10270C0001D500232B6080BCB846F0BD1E4B0321C5
:10271C001A68006AFFF71CFB63789A0711D49B07B1
:10272C00DA0F002BEFDB08216378164DA66A8B437A
:10273C00226262622264626463702A60002EDAD1C3
:10274C00E1E700210F4A1160E9E71A420BD1434639
:10275C0004211A682868FFF7FBFA63789A0702D5F8
:10276C002E609B07CFD4434607211A682868FFF7D1
:10277C00EFFA63789A07B8D500222A609B07C2D477
:10278C00B3E7C046F0310020EC310020014B186853
:10279C007047C046EC310020002802D0036818783E
:1027AC0070470020FCE7C04670B50C00002825D00F
:1027BC000222437913434371324B1B68834213D07B
:1027CC0003681B78013B012B00D970BD002C3DD058
:1027DC00036BA3420FD0436AA34209D0836AA3427E
:1027EC00F3D100238362F0E70022274B1A60E7E75E
:1027FC0000234362F2E700230363ECE700200EF0B2
:10280C003BFA00281ED0002C29D00225002603E01C
:10281C000EF032FA002815D043792B43437103682C
:10282C001B78013B012BF3D8036B9C4215D0436AF8
:10283C009C4210D0836A9C42EAD186620EF01CFA4C
:10284C000028E9D10022104B1A60BEE70023046374
:10285C0044628362B9E74662ECE70663E7E7022469
:10286C00002503E00EF008FA0028EBD0437923434F
:10287C00437103681B78013B012BF3D80563456258
:10288C008562EFE7EC310020F0310020FD22036877
:10289C001B78023B134200D101657047002811D010
:1028AC00022203681B789343012B04D001235B4263
:1028BC000B804B8070470822835E0B800A22835E5C
:1028CC004B80F7E708804880F4E7C046031E0BD026
:1028DC0002210268002012788A43012A03D13F3278
:1028EC00985C0007000F70470020FCE7031E08D01F
:1028FC0002210268002012788A43012A00D1D86A8A
:10290C0070470020FCE7C04600230B804B8000285A
:10291C000BD0022203681B789343012B05D11422A0
:10292C00835E0B801622835E4B807047014B1868C8
:10293C007047C046F031002070B50C0082B0012108
:10294C00050002F077FB002839D10422210001A8F0
:10295C0018F052FE00220123280001A903F07CFB91
:10296C0001A9280004F0DEFF06002800002201A9BE
:10297C0010300EF06BFD002814D0280008F0F4FA8B
:10298C00441E0AD4AB68A2001B6801A9D058FFF7FB
:10299C00D3FF002804D1013CF4D22800002E0ED025
:1029AC0002B070BD80212800090302F043FB00280F
:1029BC00F3D0280008F0D8FA441EE3D5EDE7002048
:1029CC00EEE7C046F0B54546DE4657464E46040097
:1029DC00E0B5006AA84D637883B028601B0766D405
:1029EC00A64E33681B68DB689846002800D1DFE0F0
:1029FC00A36A002B00D1D2E0271D0123012239004C
:102A0C0003F02AFB206A2B68984213D03A68A26024
:102A1C00002854D003213268FFF79AF963789A079B
:102A2C004CD500229B072A60DA0F002B3FDB0023DA
:102A3C00226262622289A1886089891AE28809B2BD
:102A4C00121A1827E05F21824018C10F091849108B
:102A5C0021831A20215E12B289186282CA0F521881
:102A6C0052106283A269E261002B20D0180002216F
:102A7C003268FFF76DF963789A0700D589E0082270
:102A8C00170033685B791F401A4210D1200001F007
:102A9C00CDF802231800617808400B4200D02F605B
:102AAC00012217004B081F401A4200D19EE003B0D0
:102ABC00F0BCBB46B246A946A046F0BD2B682362CB
:102ACC006362002BB6D00EF011F901220027637857
:102ADC00206493436370A38F01215B0A5B02A3877D
:102AEC00326828686761A7632761FFF731F963785B
:102AFC009A0702D52F609B07D9D40822110037689A
:102B0C007B79194088461A42D1D10421286802F0F9
:102B1C0091FA002833D028683B6B83422FD002F007
:102B2C009FFA8146386B002800D110E102F098FA28
:102B3C008246814500D13EE1031E386B00D158E13D
:102B4C0000280AD010213268FFF702F97B799A0726
:102B5C0003D542462A609B0711D44B46002B00D06C
:102B6C00F8E00E2132682868FFF7F2F87B799A07B3
:102B7C0003D54A462A609B0701D42B683B636378D4
:102B8C009A0704D500222A609B0700D58FE72B6893
:102B9C0050E700222A609B0700D588E76FE7802169
:102BAC00890102F047FA002802D02868271D24E783
:102BBC004046271DFEF706FE3900FFF7BDFE2860D4
:102BCC0000283FD0636A002B00D116E700232000B9
:102BDC00A361984601F0A2FA63789A0704D542469D
:102BEC002A609B0700D562E7286806E7A36A002BDA
:102BFC0039D0002800D15AE72F60002B00D056E7BF
:102C0C0001231F000F400B4200D10FE1CB0700D472
:102C1C004DE7606C0EF078F8326813685B8B984265
:102C2C0000D844E706212868FFF792F863789A07E2
:102C3C0004D500222A609B0700D538E70EF056F821
:102C4C00606434E74046FEF7AFFD3900FFF774FED1
:102C5C0028600028B6D14046FEF78AFD3900FFF700
:102C6C006BFE2860AEE73D33E35C1A4200D09CE07B
:102C7C00276A002F09D198E0F0310020EC310020B8
:102C8C00380008F05BF9071E71D08021380009026A
:102C9C0002F0D0F90028F3D11022A35E98463368D5
:102CAC001A689C46937D9A464346D9175B184B404D
:102CBC009BB2534500D28EE01221635E9946218F60
:102CCC00638F41444B4409B21BB200936387CB170B
:102CDC00C81821875840D37D009A9846D317D2182C
:102CEC005A4093B280B20193404501D898453ED2E8
:102CFC003C239946A1449A464B465B78984601235F
:102D0C009B4643465A46134398464B4642465A7096
:102D1C00019B98427ED95346E25C002900DC93E08B
:102D2C002D3B1340202213435246A3540C216246E0
:102D3C003800FFF70DF861788B071BD500228B0745
:102D4C00DB0F2A60002B00D0B1E6A36A55E74B4697
:102D5C00002B21D02868FFF7EBFB7B799A0700D476
:102D6C000BE700222A609B0700D508E705E761788E
:102D7C008B07E3D48B07DB0FE4E7386B00280BD011
:102D8C000F213268FEF7E4FF7B799A0704D54A4697
:102D9C002A609B0700D5F2E60E2132682868FEF700
:102DAC00D7FF7B799A07DCD4E7E6002800D127E728
:102DBC0000232B6024E74B46002BDED02868FFF75E
:102DCC00B7FB7B799A0700D4D7E642462A609B076B
:102DDC0000D5D4E6D1E61221635ED91799465B186B
:102DEC004B409BB29A4500D869E700230021A063B1
:102DFC0067E7002800D1B0E60F213268FEF7A8FF84
:102E0C007B799A0700D4A8E652462A609B0700D526
:102E1C00B5E6A2E6009B002B1DDD5346E25C0F23BA
:102E2C001A408F3B13435246A3547FE7206C0DF09E
:102E3C006BFF326813681B8B984215D8A36A002B62
:102E4C0000D034E66178E1E60F23134010221343DF
:102E5C005246A3546AE75346E25C0F2313404022C8
:102E6C0013435246A35461E705212868FEF770FF0F
:102E7C0063789A0700D52F609B0700D517E60123CE
:102E8C006278134363700DF031FF6064D6E7C0467F
:102E9C00F0B54E46DE4657464546C468E0B5236855
:102EAC00C24ED96887B03460002907D063799A077D
:102EBC000BD45B0702D44B69002B1AD007B0F0BCC3
:102ECC00BB46B246A946A046F0BD002240250F27BE
:102EDC006262A262E2626264A264A261605DB84353
:102EEC0060550320B24F8343E261E26363713A6041
:102EFC00DFE7023398460025AD4F200002A90DF004
:102F0C00C9FE424602ABDB7B3468994663791A42B0
:102F1C000FD040210F206562A562E5626564A5644F
:102F2C00A561625C8243625403229343E561E563CD
:102F3C0063713D6002AB9A7B2271012A00D1C5E01E
:102F4C0021680B78042B54D0012B00D1CBE0022B41
:102F5C0000D1FCE0042B00D157E1032B1BD063798B
:102F6C0042461A4211D040220F216562A562E562E9
:102F7C006564A564A561A35C3D608B43A354637930
:102F8C003D3A9343E561E56363714B46002BB4D145
:102F9C0033603B6092E7626D002AE0D0049B0093A3
:102FAC009B00D118D35E9A4602228B5E9B4602ABE5
:102FBC009B7B012B00D13AE1424663791A4200D047
:102FCC003D609B0713D4534623815B46638102AB60
:102FDC009B7B201D012B00D1AAE1FFF767FB42462A
:102FEC0063791A4200D03D609B0700D4ABE0346893
:102FFC00B5E702AB0C201B5E002B00D011E163790E
:10300C00190700D40AE109218B43637100239B4605
:10301C0065642572039B22720093E360236D9A46CC
:10302C00002B9CD01800FFF72BFB38600028DED05B
:10303C0002AB9B7B002B01D002AB9D815046FFF76E
:10304C001FFB38600028D2D002AB9B7B012B00D138
:10305C0071E1002B0CD15B46012B09D1039B009332
:10306C000A2B00D126E201226379656493436371D4
:10307C0002AB0C229B5E3D60002BB8D05046FFF794
:10308C0009FB02AB0C229B5E002800D180E1002BD7
:10309C0000DACFE100229346002B08D1A7E70123E9
:1030AC009C4602AB0C229B5EE3449B459FDA1321AA
:1030BC005046FFF777FA424663791A4200D03D60DA
:1030CC0001225B081A42EAD0346848E72368DC68BE
:1030DC000DF00CFEAC235B00E050346821680B78DB
:1030EC00012B00D033E7CB689B4602AB00229A5EE3
:1030FC0002AB02215B5E029900935B462161196869
:10310C00087C8446800655D430208246604653465F
:10311C001840102875D058460DF028FD2368D86843
:10312C000DF038FDE06C002805D0029B0093009A4E
:10313C00E368934254D1029B201DA3602379012B99
:10314C005CD0FFF7B3FAA368E360346807E702AB1F
:10315C009B7B012B67D063791A0704D50922934313
:10316C00656463712572236D9A46002B00D1F6E6D7
:10317C001800FFF785FA3860002800D137E7802166
:10318C0001F068FF0090217A039B0191E26802A98B
:10319C00E360897B8B462172012955D0002800D130
:1031AC00B4E034683D606379DAE6C046EC31002067
:1031BC00F0310020D2439246009B0A88DB435244F4
:1031CC0002A812B202804988CB189BB24380604699
:1031DC00C006A0D5DB4302A8CB18428003809AE737
:1031EC0002AB02229A5E02AB0021595E02F0A2FCF5
:1031FC00029B201DA3602379012BA2D1FFF7E2FBD8
:10320C00A1E76B4649881B88E4E702AB9A7B012A4D
:10321C0000D0F4E66379190700D5A1E6237A9B4622
:10322C00F8E6CC6854E763791A079CD598E60C222B
:10323C00A35E534504D10E22A35E5B4500D1BBE6D1
:10324C00201DFFF733FAB7E6019A002A2DD000288B
:10325C00A7D1019A012AA4D10A2B00D11BE26379D0
:10326C00012293461A4000925A461A4200D1A2E11A
:10327C00A06C0DF049FD23685B8B984291D90DF041
:10328C0035FD0399A0640A2900D185E2092900D1F2
:10329C00BBE250460B2900D1A5E2FFF783F9424669
:1032AC00637913422DD03D602BE00DF01FFD039987
:1032BC006064092900D1EEE00B2900D14FE1009B9D
:1032CC00002B00D06DE750460A2900D106E21B29DD
:1032DC00E3D1FFF767F9424663791A4200D03D60AB
:1032EC009B07DA0F9246002B00DA80E62021326829
:1032FC003868FEF72DFD42466379134201D05246E1
:10330C003A609B0700D44CE7346828E65B46002BF8
:10331C0000D046E7019B012B00D042E703920A2A1A
:10332C0000D16EE10122637965649343637138E7E0
:10333C00FFF748FB53E65B46002B47D0012B00D030
:10334C0096E65A4663791A4200D18FE0A06C0DF0D4
:10335C00DBFC23685B8B984200D889E60DF0C6FC39
:10336C000399A0640A2900D13AE2142900D18BE018
:10337C00132900D100E15046FFF714F94246637956
:10338C00134200D03D609B0700D471E63468E6E53B
:10339C00002B34DB00229346002B09D127E60123B6
:1033AC009C4602AB0C229B5EE3449B4500DB1EE675
:1033BC005046FFF7C3F8424663791A4200D03D608D
:1033CC0001225B081A42EAD03468C8E50DF08EFC85
:1033DC00039960640A2900D1D5E0142954D013292B
:1033EC0000D1C9E050461B2900D13BE1FFF7DAF8C8
:1033FC00424663791A42C6D05A463A60C3E7002364
:10340C009B4609E001239C4602AB0C229B5EE344E5
:10341C005B429B4500DBEAE55046FFF7A9F84246C4
:10342C0063791A4200D03D6001225B081A42E9D050
:10343C00346894E500239B4609E001239C4602ABCB
:10344C000C229B5EE3445B429B4500DBCFE51421E1
:10345C005046FFF7A7F8424663791A4200D03D6008
:10346C0001225B081A42E8D0346878E5606C0DF0F4
:10347C004BFC23681B8B984200D91CE15A4663799C
:10348C001A4200D1F4E561E702AB9B8902AA013B29
:10349C001BB29381EFE500215046FFF79DF8504693
:1034AC00FFF74CF8424663791A4200D129E7019A9A
:1034BC003A6026E701F03CFF002800D11FE150469E
:1034CC00FFF7E8F8002800D147E16379DB0705D561
:1034DC005046FFF7E7F8012800D991E1326808213E
:1034EC003868FEF735FC42466379134200D03D60E4
:1034FC009B07DA0F9346002B00DA78E5326804213B
:10350C003868FEF725FC42466379134201D05A46CF
:10351C003A609B07DA0F9346002B00DA67E53268B6
:10352C0007213868FEF714FC42466379134201D038
:10353C005A463A609B07DA0F9346002B00DA56E5A1
:10354C000A215046FFF72EF842466379134201D008
:10355C005A463A609B0700D485E53468FFE40021A5
:10356C005046FFF739F85046FFF702F842466379A8
:10357C001A4200D1C5E69AE702AB9B8902AA013335
:10358C001BB2938177E5386801F0D2FE002800D198
:10359C00ECE05046FFF77EF8002800D168E50121E9
:1035AC0032683868FEF7D4FB42466379134200D187
:1035BC00E9E63D60E7E6606C0DF0A6FB23681B8B2B
:1035CC00984218D90122637913436371039B0193C9
:1035DC000A2B00D0E5E50DF089FB3268A0640521CB
:1035EC003868FEF7B5FB42466379134200D188E692
:1035FC00009A3A6085E65A4663791A4200D1D0E5C2
:10360C0036E6326808213868FEF7A2FB4246637939
:10361C001A4201D05A463A600122990700D5E6E4D5
:10362C00110019408A461A420DD1326804213868BB
:10363C00FEF78EFB42466379134201D052463A6044
:10364C009B0700D5D3E4326807213868FEF780FB6E
:10365C00424663791A4200D03D609B0700D461E674
:10366C0034687CE4FEF79EFF424663791A4201D02F
:10367C005A463A609B07DA0F9346002B00DAB6E401
:10368C00326820213868FEF763FB424663791342A7
:10369C0000D178E6B0E6326802213868FEF758FBB4
:1036AC00424663791A4201D0009A3A609A0700D4D4
:1036BC00D6E5346853E401226379134363710DF04A
:1036CC0015FB039BA06400930A2B71D00122637934
:1036DC001343637102AB0C229B5ECCE4FEF762FFDA
:1036EC00424663791A4201D0009A3A609B07DA0F7E
:1036FC009246002B00DA7AE401213268F8E51021B9
:10370C00386801F097FC8346002800D0D7E6326871
:10371C0008213868FEF71CFB404642466379184086
:10372C001A4201D05A463A6001215A08114200D07F
:10373C005DE4194225D0002803D03D60D30700D5A5
:10374C0055E4326807213868FEF702FB424663797C
:10375C00134200D1FEE63D60FCE6012163790B4289
:10376C0000D080E45046FEF737FF7CE41021386827
:10377C0001F060FC002800D00BE75046FEF78AFFF2
:10378C000DE7042132683868FEF7E2FA41466379A6
:10379C005A080B42D2D0D0E7326838680439FEF7A9
:1037AC00D7FA42466379134200D1AAE53D60A8E5F9
:1037BC00386801F0BDFD002835D05046FEF772FF89
:1037CC00012883D95046FEF765FF01234340D9B247
:1037DC005046FEF701FF2021386801F021FC75E707
:1037EC0032680439DDE60021FEF7F6FE5046FEF79E
:1037FC00BFFE42466379134200D182E53D6080E50D
:10380C002021386801F00CFC2DE400215046FEF715
:10381C00E3FE5046FEF792FE42466379134200D116
:10382C006FE53D606DE51021386801F003FC002860
:10383C00C3D1326805213868FEF78AFA42466379AB
:10384C00134200D03D609B0700D43FE73468FFF77C
:10385C0086FBC046F0B557464E46DE464546E0B5BB
:10386C0087B0060089469A46019204F013FA071EA7
:10387C0007D1002007B0F0BCBB46B246A946A04613
:10388C00F0BD10220021300005F02CFF112203B2F4
:10389C00834600213000059305F024FF03B2049009
:1038AC003000039307F060FB0028E2D0314B00247A
:1038BC0002933B0007009846B368A2001B682E4990
:1038CC00D558280001F0BEFB00280DD1802128001E
:1038DC00490101F0AFFB002806D04346022B42D031
:1038EC00032B26D0012B09D00134A742E4D1214B64
:1038FC00029A9A42BDD0504200B2BBE7728A6B8AE0
:10390C005A4492B2534499B21BB24B45ECDB01982A
:10391C008342E9DC8A1A12B2D317D1185940029BA0
:10392C0089B2D8171B1843409BB29942DCD2029241
:10393C00DAE7EA8A6B8A0132D21A12B2D10F8A18EC
:10394C00F18A708A521001319B18091A059A09B232
:10395C00891A039A5844891ACA0F5218521012180D
:10396C009BB292B2CEE7049BF28AD21A92B2EB8A45
:10397C00C8E7C046FF1F000001000400F0B5574621
:10398C004E46DE464546E0B587B0060089469A4667
:10399C00019204F075F9071E07D1002007B0F0BCA6
:1039AC00BB46B246A946A046F0BD1222002130000B
:1039BC0005F098FE132203B28346002130000593D4
:1039CC0005F090FE03B204903000039307F0CCFA9C
:1039DC000028E2D0314B002402933B0007009846AC
:1039EC00B368A2001B682E49D558280001F02AFBA9
:1039FC0000280DD180212800490101F01BFB002873
:103A0C0006D04346022B42D0032B26D0012B09D0E3
:103A1C000134A742E4D1214B029A9A42BDD05042C4
:103A2C0000B2BBE7328A2B8A5A4492B2534499B201
:103A3C001BB24B45ECDB01988342E9DC8A1A12B2CB
:103A4C00D317D1185940029B89B2D8171B18434081
:103A5C009BB29942DCD20292DAE7AA8A2B8A013213
:103A6C00D21A12B2D10F8A18B18A308A521001318F
:103A7C009B18091A059A09B2891A039A5844891A8B
:103A8C00CA0F5218521012189BB292B2CEE7049B76
:103A9C00B28AD21A92B2AB8AC8E7C046FF1F0000A6
:103AAC0001000400F0B546464F46D646C0B51E0090
:103ABC0008AB1B780C00202105001700984601F07C
:103ACC00B9FA00282ED043462800032B34D004F03A
:103ADC00E1F88046FEF72AFF1022002181462800DB
:103AEC0005F000FE112282460021280005F0FAFDA7
:103AFC004346022B00D175E0032B56D0012B4DD041
:103B0C00002E40DA002C3BDB002C01DD023424B209
:103B1C000320E117084000198010E0BCBA46B146FA
:103B2C00A846F0BD2000E64202D5704200B2040067
:103B3C003C1BF2D53800F0E704F0A2F88046FEF703
:103B4C00F5FE122200218146280005F0CBFD132240
:103B5C0082460021280005F0C5FD4346022B48D0C3
:103B6C00032B4DD0012BCBD14A462B8A1021525E10
:103B7C0053441BB2002E0DDB002F07DB2000CCE7DB
:103B8C00023C24B2C0E7002FBCDBF7E79A42B9DA5B
:103B9C002000C2E79A42B5DD2000BEE74A466B8A98
:103BAC001221525E53441BB2E4E75346EA8A698AF7
:103BBC000132521A1BB212B2D21A00B2101AC30F2F
:103BCC001B1851445B105B184A464946528AC98AF5
:103BDC001BB20131891A09B2C80F41184910521889
:103BEC0012B2C7E74A46EB8A1621525E1B1A1BB269
:103BFC00C0E74A46AB8A1421525E1B1A1BB2B9E7C6
:103C0C005346AA8A298A0132521A1BB212B2D21A0C
:103C1C0000B2101AC30F1B1851445B105B184A46B4
:103C2C004946128A898A1BB2D3E7C046F0B557467B
:103C3C00DE464E464546E0B5876A04008BB0002F41
:103C4C0065D02369002B55D03C230F25E35C38004D
:103C5C001D40032D00D187E104F03AF8050038002F
:103C6C0004F040F81222A15E0C22030000923800EE
:103C7C002A00FFF717FF0600380003F0F7FF0023B8
:103C8C009C4643073DD50025030703D4F043C017DA
:103C9C00064036B232001620215E3223E05E8A18CE
:103CAC00824202DA401A06B272183623E05E904263
:103CBC0001DA401A06B21423E25E63463021605EDC
:103CCC00D318834202DA801A05B2AB183421605E35
:103CDC00984201DA801A05B232002900380005F04A
:103CEC003FF963789B0705D4A08A4519E08AA58221
:103CFC008619E6820BB0F0BCBB46B246A946A0467C
:103D0C00F0BD002EBFDD002200250026C3E7838A0C
:103D1C00028A9B188382428AC38A9B18C382FEF74D
:103D2C0035FD0368256A1A7D05921B7D04931423C7
:103D3C00E25ED317D2185A401621635E92B2D9179D
:103D4C005B184B409BB29A4200D974E101239B460D
:103D5C00002398460023BA46A1460993002DC9D0EA
:103D6C001021280001F066F9002854D18021280088
:103D7C00490001F05FF9002802D14346002B0BD11A
:103D8C0080212800890001F055F9002800D0CFE0EF
:103D9C005B46002B00D1CBE057464C46002FA9D0F8
:103DAC003C220F21A35C38008B4309990B43A3548D
:103DBC0000238021A762636101F03CF9002800D048
:103DCC001EE12000CB4BCC4A0093303011000DF09B
:103DDC0097FA3423E05E3022A35E002B01D1C64B50
:103DEC002386002801D1C34BA3863222A35E002B6D
:103DFC0001D1C14B63863622A35E002B01D1BD4B92
:103E0C00E386002209213800FDF7A2FF63789B07A7
:103E1C0000D416E76EE7280003F028FF0123424682
:103E2C0003405B421A40069242468307DB171A4056
:103E3C005B4644070607E4172800F61708921C4057
:103E4C001E4003F045FF0700280003F04BFF0790CE
:103E5C00280004F055FC0390280004F067FC002FA8
:103E6C0000DCA9E0002C75D04B4616229B5E049A10
:103E7C0093426FDB0C23AA460993039B002B00DCB7
:103E8C0096E0069B002B5AD04B4614229B5E049A5C
:103E9C00934254DB0323AA460993079AFB17DF1BB3
:103EAC00D3179B1ADB171E40039BFF173C40002BBC
:103EBC007BDD069B002800DC8AE0002B06D04B46FD
:103ECC0014229B5E049A934200DB8AE0089B002B31
:103EDC0007D04B4614229A5E059B5B429A4200DC4B
:103EEC007FE0002C05D04B4616229B5E049A934231
:103EFC0077DA002E06D04B4616229A5E059B5B4263
:103F0C009A426EDD80212800490001F093F80028C8
:103F1C0003D14346002B00D03EE7802128008900C6
:103F2C0001F088F8002803D15B46002B00D033E762
:103F3C00280007F003F8051E00D011E72CE7089BBA
:103F4C00002BAAD04B4614229A5E059B5B429A42E8
:103F5C00A3DC9FE7002E90D04B4616229A5E059B61
:103F6C005B429A4289DC85E704F0E0FB06003800EE
:103F7C0004F0C6FB1023E15E02003300009538000C
:103F8C00FFF790FD05000600380003F06FFE0300FC
:103F9C00C20716D59B0700D5BBE033B2DB43DB175A
:103FAC0033401DB2AC4600266EE600288EDC98E746
:103FBC00002800DD65E770E7079B002B00DD51E76B
:103FCC005BE7002DE6DD002300259C4600265BE622
:103FDC00002B86D04B4614229B5E049A934200DA47
:103FEC007FE743464C4608223C210F205B4293431B
:103FFC00625C0C3303408243134357466354CDE653
:10400C00380003F047FE022842D0032818D00128BC
:10401C0031D0394B6386374BE386380003F030FEE2
:10402C0002286BD003284FD001283CD0324B23867A
:10403C00304BA386D9E600239B460133984689E68C
:10404C00FB8A7D8A01335B1B1BB2DA0FD3185B1022
:10405C00ED18ADB2691C274A0023380009B2FFF7EE
:10406C00F9FB013D60862AB2002338002249FFF794
:10407C00F1FBE086D1E7798A1E4A01310023380032
:10408C0009B2FFF7E7FB60867A8A013A12B2EBE7D6
:10409C001623F95E174A00233800FFF7DBFB608616
:1040AC001623FA5EE0E71023F95E124A002338006B
:1040BC00FFF764FC20861023FA5E002338000E49BB
:1040CC00FFF75CFCA08686E6BB8A3D8A01335B1B4E
:1040DC001BB2DA0FD3185B10ED18ADB2691C054A90
:1040EC000023380009B2FFF749FC013D20862AB2B3
:1040FC00E3E7C046FF1F000001E0FFFF1423F95E59
:10410C00054A00233800FFF739FC20861423FA5E99
:10411C00D3E7B4460026B7E5FF1F0000F0B54E46C6
:10412C00DE4657464546E0B5866A040083B0002E4D
:10413C0003D03C23C35C1B0706D103B0F0BCBB46C9
:10414C00B246A946A046F0BDFEF720FB03688046A8
:10415C00402130005F7D00F06DFF002800D1A06190
:10416C00300003F08DFD8146300003F093FD3C23BD
:10417C000F25E35C82461D400C2D5BD0032D1BD01C
:10418C00A369002BD9D15346002B7AD04B46002B78
:10419C0000D1C5E042460A213000FDF7D9FD0222CC
:1041AC001100637819401A42C7D10F203A32A35C30
:1041BC008343A354A162C0E7002363834B46002BC7
:1041CC0000D1C1E01823E55EFEF7E0FA03685B7DE1
:1041DC00002D00D1FDE06422D31A9B4600275846DF
:1041EC0064216843FCF724F87F1905B23FB2002D17
:1041FC00F5D13B00002222831422A15E3020225EE6
:10420C00CB18934202DA521A17B27B183420225E72
:10421C009A4200DAD6E0BDB23B0030006E4A6F49DC
:10422C00FFF7ACFB2D1801230022300029B204F05B
:10423C0093FAA5E700232383002836D164201A22A1
:10424C00A35EC01B58436421FBF7F2FF6083300070
:10425C0003F048FD0700300003F03AFD1A23E15E3D
:10426C0002003B0030000095FFF71CFC002302000D
:10427C0060830021300004F06FFAA369002B00D09A
:10428C005BE7300003F024FD0500300003F02AFD4D
:10429C00002D7DDD002800DB78E7404202B20123CF
:1042AC000021300004F058FA70E71A23E55EFEF79F
:1042BC006DFA03685B7D002D00D187E06422D31A70
:1042CC009A460027504664216843FBF7B1FF7F19DB
:1042DC0005B23FB2002DF5D13B00002262831622BD
:1042EC00A15E3220225ECB18934202DA521A17B228
:1042FC007B183620225E9A4246DBBDB23B00364A22
:10430C0036493000FFF7A6FA2D18012300213000A2
:10431C002AB204F021FAA369002B00D136E70CE78E
:10432C00300004F0EDF90500300004F0FFF9002D29
:10433C003BDD002800DB2DE7404201B201230022C7
:10434C00300004F009FA25E764201822A35EC01B94
:10435C0064215843FBF76CFF2083300004F0D0F944
:10436C000700300004F0E2F91822A15E03003A00C5
:10437C0030000095FFF796FB0023010020830022FC
:10438C00300004F0E9F9FBE6521A95B217B2B5E722
:10439C00002800DCFAE6002D00D1F7E601232A0004
:1043AC000021300004F0D8F9F0E6002800DCF1E63A
:1043BC00002D00D1EEE6012300222900300004F08C
:1043CC00CBF9E7E6521A95B217B225E7002700237E
:1043DC0083E7002700230DE7FF1F000001E0FFFF2C
:1043EC00030070B500281BD0032916D000240C291B
:1043FC0011D12222805E1B685B7D002810D06425C1
:10440C000024ED1A241864216843FBF711FF00B255
:10441C0024B20028F6D1200070BD2022805EEAE78D
:10442C000024F8E7F0B5D64646464F46C0B5A4B0D2
:10443C000500FDF7C9FC06002800FDF7C1FC0400CF
:10444C00122E09D0152E19D0182E6AD024B0E0BC2B
:10445C00BA46B146A846F0BD2800FDF7B9FC037872
:10446C000500022BF2D017220021200005F03AF9AA
:10447C00061E00D100E102232B70E7E72800FDF7B0
:10448C0005FD04AD0700280008F08EFD3422002144
:10449C00200005F027F9002804D023220121AB5C71
:1044AC000B43AB542A000021200000F055FF68227A
:1044BC000021200005F016F90021060069222000D9
:1044CC0005F010F91223E25E1421635E80B2984667
:1044DC001621635E218A9C46B3B2121A02AE604466
:1044EC00C91A43443180B38039007280F08012A81D
:1044FC0001F02EF9984B1A211393002312AA2000D5
:10450C001493169515961F93FDF722FC3200290083
:10451C00380008F06FFD1B21200012AAFDF718FCD3
:10452C0094E72800FDF7B2FC6946060002AA2000B9
:10453C0004F03CFD68460CF0F3FE002804D102A800
:10454C000CF0EEFE002847D004AD280008F02CFD3E
:10455C00802121222000490205F0C4F8C0B2E87085
:10456C00022800D9E6E0802131222000490205F022
:10457C00B9F82227C3B2EB55022B00D9C9E0E87871
:10458C00034329D012A8310001F0E2F8724B6846BF
:10459C0013930223149380235B0216951F930CF044
:1045AC00BFFE002800D0A2E002A80CF0B9FE002843
:1045BC0012D002AB1A2112AA20001593FDF7C8FBEA
:1045CC0002AB1A0029003000159308F013FD1B21D3
:1045DC00200012AAFDF7BCFB34220021200005F0BC
:1045EC0081F8002800D131E704AD280008F0DCFC8C
:1045FC0000272A23EF70AF76EF540C33EF542A00C8
:10460C000021200000F0A8FE68220021200005F007
:10461C0069F8804669220021200005F063F8122316
:10462C00E25E218A92461422A35E80B2994616223B
:10463C00A35E6A469C4643469BB2C91A4B4493817F
:10464C00534611811A1A6B4660445A81D881310045
:10465C0012A801F07DF8404B1A211393012312AAE2
:10466C001493200002AB169515931F97FDF770FB62
:10467C002900300002AA4CE70B220021200005F093
:10468C0031F86822002107B2200005F02BF8804693
:10469C0069220021200005F025F81223E25E12A900
:1046AC0092461422A35E80B299461622A35E228AF9
:1046BC009C4643469BB2D21A4B448B8053460A808D
:1046CC001A1A60444A80C8803A0068680CF0DCFF13
:1046DC00002802D101232B70B8E6212200212000F2
:1046EC0005F000F8C0B2FC28F4D92E70AEE66B468B
:1046FC0012AA1A2120001593FDF72AFB6A462900FD
:10470C00300008F077FC1B21200012AAFDF720FBDB
:10471C004AE7802132222000490204F0E3FF00B274
:10472C00288400280EDC0023EB55EB78002B00D1FD
:10473C0052E727E7802120222000490204F0D2FF13
:10474C00A88010E7802130222000490204F0CAFF23
:10475C00E883EB5D13E7C04648B7010810B50C00C1
:10476C000800FDF741FB002004F0B6FF0021164ABB
:10477C00200005F093FA012004F0AEFF0021200088
:10478C000CF01CFCA368002B1DD09A68002A05D0E5
:10479C002000FDF713FEA368002B14D01868002826
:1047AC0004D00DF01FFC0022A3681A60D868002802
:1047BC0004D00DF017FC0022A368DA6018000DF08D
:1047CC0011FC0023A36010BDFFFF0F00F0B5C6461F
:1047DC004F680C0000B5002F25D0380003F090FF77
:1047EC008046380003F074FA1022050000213800CE
:1047FC007E8A04F077FF3618731B9BB26382013BF1
:10480C00E3821222002138003D8A04F06BFF4346FC
:10481C002818C01A80B2054B20820138A082A361EF
:10482C0080BCB846F0BD024B8B61F9E776BB00004B
:10483C0076180000F0B55746DE464E464546E0B5C4
:10484C008DB00791838B82460A000A938B4206D067
:10485C008183190005F0BCFE0890002806D10DB02C
:10486C00F0BCBB46B246A946A046F0BD80208000F5
:10487C000DF014FC8021890004900DF013FF5346B9
:10488C00DB8BDB059B0E60D0079BDB430693002381
:10489C009B460293029BDC005346DB689C46A44477
:1048AC0065466B6805951802000A039305F0CEFF68
:1048BC005346DB6803909C46644406006068000223
:1048CC00000A05F0C5FF069B070033421CD10222EB
:1048DC00EB791A4218D12B6878499A888A4248D0C9
:1048EC00DC79002C10D0012C00D1B9E000211D681E
:1048FC00A200AA18108883049B0C662B00D1BFE081
:10490C00013102328C42F5D85346029ADB8B0132CC
:10491C00DB0502929B0E934200D89CE05B461F2B5A
:10492C00B8D9079B00255F469846049C0A9E606890
:10493C0005F08EFF013501000094434632005046CD
:10494C0005F06EFD1034AF42F1D104980DF04AFC25
:10495C00089B012B00D1A6E0032B00D1A7E0022B72
:10496C0000D07CE7504601F0E5FD504600F0F8FE23
:10497C0075E719680A88002A04D1C5E70A89083145
:10498C00002AC1D093049B0C662BF7D113B2002BD9
:10499C00BADB8023DB011A4200D07FE04B689946DA
:1049AC004B461B681A88002AAED0002290465A4605
:1049BC001F2AA9D85246BA460B92049A0026141DF7
:1049CC005A464746002A04D166E0013610345E454B
:1049DC0025D02568280005F039FF8046280005F011
:1049EC0037FF4B461B68A188DA199446DA5B914273
:1049FC00EBD18245E9D1039A4245E6D8B8466746E1
:104A0C005E450ED002229446E04442469A5A002A51
:104A1C0002D05A46202AD0D10B9B9A4674E7B8464E
:104A2C00674604995A468C46494612018968624485
:104A3C0011804946C968518049464968D160398816
:104A4C0011810599496809910902090A51600122ED
:104A5C009446E344D6E75B46002B00D061E774E74D
:104A6C009104890C662900D04EE711B2002900DAB6
:104A7C004AE78021C9010A4210D11B6899468FE789
:104A8C0003B2002B00DA3FE78023DB01184205D18B
:104A9C0089004B59994683E7DF19C2E766200DF070
:104AAC00EBFF81467CE7504601F044FDD7E6F02150
:104ABC005046024A090304F0CBFFD0E6FFFF00008A
:104ACC00F0B5080085B00E00FDF77EF9040030004B
:104ADC00FDF778F90500012C4DD0082C28D0032CBB
:104AEC0000D19DE02A2C00D1A2E00D2C56D00E2C2A
:104AFC0000D1ADE0092C00D101E10A2C00D1DAE0A3
:104B0C000F2C00D11BE1292C00D132E1222C00D139
:104B1C0053E1132C00D178E1182C07D892235B04B5
:104B2C00E340DB0702D53000FFF77CFC05B0F0BD9D
:104B3C00838B2022190091431A4225D13000FDF7B6
:104B4C0047F9FDF7D3FE0028F0D1AB691B07EDD573
:104B5C000122AB8B1A4200D0EBE00121194389B240
:104B6C008B4202D02800FFF765FE00221C21280092
:104B7C00FDF7EEF8DAE72021838B19439942D5D063
:104B8C002800FFF757FED1E7FFF754FE3000FDF782
:104B9C001FF9FDF7ABFE0028C8D1D6E783691A07C9
:104BAC0000D5B3E08122120113409342BED100F034
:104BBC00BFFB0028BAD1280003F0A2FD0700280093
:104BCC0003F0B4FD04003000FDF702F90378122B5A
:104BDC0000D122E1112B00D132E1132B00D142E1A3
:104BEC00142BA3D1280003F041F8830700D127E14F
:104BFC00002F02DC002C00DC22E1280003F054F82A
:104C0C000400280001F0F8F80322C31713401B1806
:104C1C009B10E31A0022280019B204F04BF985E727
:104C2C00838B2022190091431A4200D17EE7A7E71B
:104C3C0006F09AF9061E00D178E70024AB68A200B2
:104C4C001B680134D05801F023F8A642F6D16DE769
:104C5C0083695B054BD4A868002800D08068FDF7F9
:104C6C0019FD0400FDF792FD002844D0FDF794FDDA
:104C7C00811EFD2001404B1E99410323494299435B
:104C8C00AB8B06311943002C0ED189B28B4203D069
:104C9C002800FFF7CFFDA98B08230A009A430B428B
:104CAC0000D143E711006BE70822114389B28B4214
:104CBC0000D13BE764E7838B4022190091431A42F1
:104CCC0001D0FFF7B7FD280002F0C6FF022800D084
:104CDC002CE76946280002AA04F068F96946280006
:104CEC0001F006FC280002A901F002FC1EE70121DC
:104CFC0004F018F9AFE73000FDF7C0F8B6E7402133
:104D0C00838B19438B4200D110E739E73000FDF754
:104D1C005FF80478022322009A43112A17D022004C
:104D2C00123A9A43D3B2002B18D00A2C00D1FDE6CC
:104D3C001BE7190091431A4200D116E712E7838B47
:104D4C000E22190091431A4200D1EFE618E7012117
:104D5C00AB8B19438B4200D107E703E7AB8B0122E6
:104D6C00190091431A4200D1FFE62800FFF762FDBB
:104D7C00DBE70922002104F0B5FC0A220400002123
:104D8C00280004F0AFFC80B2002802D1E4B2002C61
:104D9C0002D0280000F07CFF280006F0E5F8061E83
:104DAC0000D1C3E60024AB68A2001B680134D058C4
:104DBC0000F06EFFA642F6D1B8E60122002104F005
:104DCC0091FC042200210600280004F08BFC09222F
:104DDC0000210700280004F085FC0A2204000021B1
:104DEC00280004F07FFC80B200280AD1E4B2002C29
:104DFC0007D12B4B36B29E4203D03FB29F4200D01C
:104E0C0094E6280000F044FF90E6002100F02AFC14
:104E1C0001003000FDF742F888E6280002F04EFF52
:104E2C000400280000F0F0FF0323C11719400918F3
:104E3C00891009190022280009B204F057F875E608
:104E4C00280002F03BFF0400280000F0DDFF0322E5
:104E5C00C31713401B189B10E31A0022280019B229
:104E6C0004F044F862E6280002F000FF8307D4D077
:104E7C00002F01DC002CD0DD280002F015FF04000F
:104E8C00280000F0B9FF0323C11719400918891035
:104E9C0009190022280009B204F00CF846E6C046B5
:104EAC00D127000010B5124C2378002B1ED10DF029
:104EBC0069F80DF0D1FE0CF09DFD0CF03FF8FDF7FC
:104ECC0015FA07F09DFA04F0FFFBAE2109484900E2
:104EDC000CF054FF582108480CF050FF06F05AFB18
:104EEC0008F06EFC0BF09AF80123237010BDC0463D
:104EFC00F431002068330020C433002010B50100C9
:104F0C00034800F015F9040000F08AF9200010BDE8
:104F1C0048B7010870B584B004000D0000F09EFE87
:104F2C000600EB0727D4A3692B43A361200000F0F4
:104F3C0095FEB04207D1C0235B041D4203D1EB06A2
:104F4C000BD404B070BD200005F0F8FF00F0A0FEFB
:104F5C00200000F09DFEEB06F3D56946200002AA66
:104F6C0004F024F86946200001F0C2FA200002A9DE
:104F7C0001F0BEFAE5E7200001F0DCFAA36920009D
:104F8C002B43A36101F0D6FAD0E7C04670B584B0CC
:104F9C0004000D0000F062FE0600EB0614D4A369B9
:104FAC00AB43A361EB0721D4200000F057FEB042C5
:104FBC0003D1C0235B041D4204D0200005F0BEFFCA
:104FCC0000F066FE04B070BD02AA6946200003F032
:104FDC00EDFF6946200001F08BFA200002A901F0D8
:104FEC0087FAA369AB43A361EB07DDD5200001F081
:104FFC00A1FA200000F032FE0028D5D0200005F0E8
:10500C009DFF00F045FE200000F042FECCE7C046BC
:10501C00838B10B519438B4201D0FFF70BFC10BDED
:10502C00838B10B51A008A43194202D01100FFF786
:10503C0001FC10BD80690840401A43425841C0B27F
:10504C007047C04680690840431E9841C0B2704703
:10505C00808B7047808B0840431E9841C0B27047CC
:10506C008068002800D080687047C046836810B5FF
:10507C000400002B00D010BD0A4A1C201368013319
:10508C0013600CF08DFFA06000280AD01C210DF0DD
:10509C0009FBA168044A0B8B1A40044B13430B8386
:1050AC00E9E7FEE7F8310020FCF0FFFF030F0000FA
:1050BC00002805D00068401A43425841C0B27047DE
:1050CC000020FCE7F0B5C646056804002E6800B564
:1050DC00002E22D03768002F18D03B689846002B42
:1050EC000DD01B68002B02D00360FFF7EBFF43468B
:1050FC0023605B68002B02D02100404698477B68F8
:10510C002760002B02D02100380098477368266076
:10511C00002B02D02100300098476B682560002BD3
:10512C0002D021002800984780BCB846F0BDC0468C
:10513C00F8B507000E00031E5ED0374C02E01B686A
:10514C00002B06D05A69150025402242F7D01203D5
:10515C00150C28000CF024FF041E1BD029000DF0A8
:10516C00A1FA27606660002E20D0B568002D3ED0D5
:10517C002868002810D06B68591C696089000CF0F5
:10518C004DFF2649B2688C46536828601268634408
:10519C009B009C502000F8BD04300CF001FFB3685C
:1051AC0028601A68146001225A60F3E70BF0D8FCEF
:1051BC00051E2BD0C068002820D06B6A591C696270
:1051CC0089000CF02BFF154A6B6A944663449B00D4
:1051DC00E8601C500023002023610BF0C7FC013851
:1051EC00A08200200BF0D6FC0138E082D2E7300020
:1051FC00FFF73CFFB568BBE70025AAE704300CF0CD
:10520C00CFFE0123E86004606B62E3E720000CF042
:10521C00E9FE0024BEE7C046F0FF0F00FFFFFF3F92
:10522C00F0B5C646040000B500F032FD002004F0D5
:10523C0053FA200007F0A2F825682E68002E23D020
:10524C003768002F19D03B689846002B0ED01B688E
:10525C00002B03D020002360FFF734FF434623606C
:10526C005B68002B02D02100404698477B68276082
:10527C00002B02D021003800984773682660002B61
:10528C0002D02100300098476B682560002B02D0BB
:10529C00210028009847012004F01EFAF02120007C
:1052AC00184A090304F0D4FB200000F04BFEFDF774
:1052BC0043F800280ED023680C21002B03D109E001
:1052CC001B68002B06D00D001A7D15401142F7D03B
:1052DC00042D13D0200005F031FE051E0BD022004A
:1052EC002221FCF735FD220023212800FCF730FD9C
:1052FC00200001F01FF980BCB846F0BD2100FDF77D
:10530C0021F8E7E7FFFF000010B504000068836890
:10531C00002B09D02100984723681868002806D074
:10532C0083682060002BF5D100680028F8D110BDEF
:10533C0003680321002B03D10CE01B68002B09D060
:10534C0008001A7D10401142F7D0013843425841F1
:10535C00C0B270470020FCE7F0B5C64606000D0051
:10536C001400FF2700B5002951D1E378002B00D0A1
:10537C008DE032222900300004F0B4F900B2208410
:10538C00002805D022239846E35C002B00D094E043
:10539C0035222900300004F0A5F900B2E084002881
:1053AC0014D1A37E002B42D1002D0CD0FC2F0AD897
:1053BC0036232222E05C47433F0AE770A776A754C6
:1053CC000832A754E75480BCB846F0BD2A2398464F
:1053DC00E35C002BE5D037222900300004F082F981
:1053EC004346C0B2E0540228DBD9382229003000F1
:1053FC0004F078F9362229002085300004F072F987
:10540C0029000200300005F0C3F8A084C9E760222F
:10541C0004F068F9C7B2022FA7D800232222E37048
:10542C00A376A3540832A3540C32A354CBE72822FE
:10543C002900300004F056F920610028B4D029224C
:10544C002900300004F04EF9C0B2A0760228ABD986
:10545C00206907F071F9022854D02A222900300063
:10546C0004F040F929000200300005F091F82B22DD
:10547C0029002083300004F035F92C22E076290035
:10548C00300004F02FF9431E984120778CE721223D
:10549C002900300004F026F9C0B2E070022800D8D0
:1054AC0067E720222900300004F01CF929000200D3
:1054BC00300005F06DF8A0805BE731222900300048
:1054CC0004F010F94346C0B2E054022800D85FE75C
:1054DC0030222900300004F005F9290002003000C8
:1054EC0005F056F833222900E083300004F0FAF876
:1054FC0023221F233E210340A05C5B0088431843FA
:10550C00A05445E757222900300004F0EBF855224F
:10551C0029006061300004F0E5F829000200300039
:10552C0005F036F820833FE770B5160056220500CB
:10553C000C0004F0D7F8C0B2B07602283AD9002C8F
:10554C0009D060222100280004F0CCF8C3B2022B51
:10555C0038D9FC2B2FD955222100280004F0C2F891
:10556C0021000200280005F013F858222100B08118
:10557C00280004F0B7F859222100B082280004F06A
:10558C00B1F85A2221007082280004F0ABF80722EF
:10559C000300B07F1340904318432100B077503282
:1055AC00280004F09FF85B2230602100280004F0F2
:1055BC0099F8307770BDFF23B27E1840504300122B
:1055CC00B076C8E70023B376F4E7C04670B5150093
:1055DC00462204000E0004F085F8C0B2E8720228DE
:1055EC002FD9002E0FD060223100200004F07AF861
:1055FC00C3B2022B32D9FC2B05D8FF23EA7A184010
:10560C0050430012E87280235B042B60A38A228A29
:10561C0001339B1A1BB2DA0FD3185B10AB80E38AF1
:10562C00628A01339B1A1BB2DA0FD3185B10482223
:10563C0031002000EB8004F055F8C0B2A8720028AD
:10564C0000D170BD47223100200004F04BF831002E
:10565C000200200004F09CFF2881F2E70023EB728B
:10566C00EFE7C046F8B5402204000D0004F03AF80C
:10567C0006B2002E1FD135222900200004F032F88A
:10568C0006B20027002E4FD168222900200004F01A
:10569C0029F86922290006B2200004F023F800B290
:1056AC00031CB04200DA331C1AB2002A01DDFF18C9
:1056BC003FB23800F8BD45222900200004F012F852
:1056CC00C0B20228D7D943222900200004F00AF8DE
:1056DC00F70FBF1901307F10412229003F1820001D
:1056EC0004F000F8422206B22900200003F0FAFF71
:1056FC0003B2DA179B185340F217B6185640B1B2E2
:10570C001A1C9BB2BFB28B4200D2321CBA1813B215
:10571C00DB43DF17174029003522200003F0E2FF9E
:10572C0006B23FB2002EAFD037222900200003F082
:10573C00D9FFC0B20228A7D938222900200003F0D3
:10574C00D1FF00B28619BE4200DA3E0037B29BE7A9
:10575C0070B50D00040048210CF0A4FF256070BD4D
:10576C0070B58368040082B0002B28D016269E5F8B
:10577C006B469D1D00232A00132120002B80FCF773
:10578C00E7FA0023EA5E3300B24204D0200000F0B6
:10579C00D1FE0022AB5EA268002A07D0D3829E42C3
:1057AC0002D0200000F0C6FE02B070BD002BF6D077
:1057BC002000FFF75BFC0022AB5EA268EEE7002640
:1057CC00D6E7C0468368002B02D01620185E7047BF
:1057DC000020FCE78368002B02D0987E800970477C
:1057EC000020FCE7F0B5D64646464F46C0B590467D
:1057FC0082B06D220F000021040003F073FF03B28E
:10580C009A4606006C220021200003F06BFF5346E1
:10581C0005B2002B03D10133FF339D421CD0238AE8
:10582C006E2200212000994603F05CFF6B46484431
:10583C009880638A6F2200212000994603F052FF62
:10584C006B464844D8804346002B0BD12A00514666
:10585C00380001AB0BF068FF02B0E0BCBA46B146B1
:10586C00A846F0BD80207642290033B240029A4609
:10587C00FAF7DEFC05B2E9E7F0B5DE4645465746D9
:10588C004E46E0B599B00D00140015901691179284
:10589C0005F06AFB0E90002800D144E1ABB29846AB
:1058AC000023A7B209933B0047469846159B099ADB
:1058BC009B6892001B68D2580F92138A1000FB1839
:1058CC001382538A43445382938AFB189382D38A5C
:1058DC004344D38205F048FB002310900A93002820
:1058EC0000D119E10F9B0A9A9B6892001B68C34672
:1058FC00D2581192138A1000FB181382538A434416
:10590C005382938AFB189382D38A4344D38205F043
:10591C002BFB002312900B93002800D1F5E0119B78
:10592C000B9A9B6892001B68D946D2581392138A23
:10593C001000FB181382538A5B445382938AFB1822
:10594C009382D38A5B44D38205F00EFB0023149020
:10595C000C93002800D1D0E0139B0C9A9B6892000A
:10596C001B68D358984642461B8A4046FB18138244
:10597C00538A4B445382938AFB189382D38A4B44A9
:10598C00D38205F0F1FA002305909B46002800D144
:10599C00ABE03B00CA465F46C1469B464B469B6804
:1059AC00BA001B68D658338A30005B443382738A42
:1059BC0053447382B38A5B44B382F38A5344F382B5
:1059CC0005F0D2FA002303900193002800D185E062
:1059DC005B46CB46B9461F000896089B019A9B680C
:1059EC0092001B68D658338A3000FB183382738AB6
:1059FC00B04653447382B38AFB18B382F38A534480
:105A0C00F38205F0B1FA00230D90049300285AD0CC
:105A1C0043469B68049A1B689200D6580025338A2B
:105A2C003000FB183382738A53447382B38AFB1899
:105A3C00B382F38A5344F38205F096FA0690002859
:105A4C003BD05346B2461E0053469B68AA001B68C7
:105A5C00D458238A2000FB182382638AF3186382AC
:105A6C00A38AFB18A382E38AF318E38205F07CFA7D
:105A7C0000230790029300281AD0A368029A1B688F
:105A8C009200D0581699038A179AFB180382438AFE
:105A9C00F3184382838AFB188382C38AF318C38268
:105AAC00FFF7EAFE029A531C079A02939A42E4D13A
:105ABC00069B0135AB42C7D1B246049B0D9A01330C
:105ACC0004939A42A4D1019B039A013301939A4205
