:020000040800F2
:1000000000900020014500081D0700082107000896
:1000100000000000000000000000000000000000E0
:10002000000000000000000000000000250700089C
:100030000000000000000000290700082D0700084C
:100040005145000851450008514500085145000838
:10005000514500083D07000851450008514500087A
:10006000514500084D0700085D07000875070008A6
:100070005145000851450008514500085145000808
:1000800051450008514500085145000851450008F8
:1000900051450008514500085145000851450008E8
:1000A00051450008850700089507000851450008DC
:0C00B0005145000851450008514500086A
:1000BC0010B5064C2378002B07D1054B002B02D032
:1000CC00044800E000BF0123237010BD9400002001
:1000DC000000000038B50108044B10B5002B03D00C
:1000EC000349044800E000BF10BDC04600000000FA
:1000FC009800002038B5010802780B78002A03D04C
:10010C00013001319A42F7D0D01A70470023C25CFB
:10011C000133002AFBD1581E70470000002243080F
:10012C008B4274D303098B425FD3030A8B4244D3B3
:10013C00030B8B4228D3030C8B420DD3FF220902F5
:10014C0012BA030C8B4202D31212090265D0030BB4
:10015C008B4219D300E0090AC30B8B4201D3CB03AA
:10016C00C01A5241830B8B4201D38B03C01A5241EC
:10017C00430B8B4201D34B03C01A5241030B8B42EE
:10018C0001D30B03C01A5241C30A8B4201D3CB02D9
:10019C00C01A5241830A8B4201D38B02C01A5241BE
:1001AC00430A8B4201D34B02C01A5241030A8B42C1
:1001BC0001D30B02C01A5241CDD2C3098B4201D3D9
:1001CC00CB01C01A524183098B4201D38B01C01A57
:1001DC00524143098B4201D34B01C01A52410309CE
:1001EC008B4201D30B01C01A5241C3088B4201D37D
:1001FC00CB00C01A524183088B4201D38B00C01A2A
:10020C00524143088B4201D34B00C01A5241411A50
:10021C0000D20146524110467047FFE701B500205D
:10022C0000F0F0F802BDC0460029F7D076E7704721
:10023C0003460B437FD4002243088B4274D303093B
:10024C008B425FD3030A8B4244D3030B8B4228D3DC
:10025C00030C8B420DD3FF22090212BA030C8B4202
:10026C0002D31212090265D0030B8B4219D300E0A2
:10027C00090AC30B8B4201D3CB03C01A5241830B27
:10028C008B4201D38B03C01A5241430B8B4201D3D7
:10029C004B03C01A5241030B8B4201D30B03C01A00
:1002AC005241C30A8B4201D3CB02C01A5241830A7A
:1002BC008B4201D38B02C01A5241430A8B4201D3A9
:1002CC004B02C01A5241030A8B4201D30B02C01AD3
:1002DC005241CDD2C3098B4201D3CB01C01A52413A
:1002EC0083098B4201D38B01C01A524143098B42C3
:1002FC0001D34B01C01A524103098B4201D30B01AC
:10030C00C01A5241C3088B4201D3CB00C01A5241D0
:10031C0083088B4201D38B00C01A524143088B4295
:10032C0001D34B00C01A5241411A00D2014652412E
:10033C00104670475DE0CA0F00D04942031000D34D
:10034C004042534000229C4603098B422DD3030AA2
:10035C008B4212D3FC22890112BA030A8B420CD3B2
:10036C00890192118B4208D3890192118B4204D3DB
:10037C0089013AD0921100E08909C3098B4201D35B
:10038C00CB01C01A524183098B4201D38B01C01A95
:10039C00524143098B4201D34B01C01A524103090C
:1003AC008B4201D30B01C01A5241C3088B4201D3BB
:1003BC00CB00C01A524183088B4201D38B00C01A68
:1003CC005241D9D243088B4201D34B00C01A52413F
:1003DC00411A00D20146634652415B10104601D3CC
:1003EC004042002B00D54942704763465B1000D356
:1003FC00404201B5002000F005F802BD0029F8D0FC
:10040C0016E770477047C0461C2101231B04984215
:10041C0001D3000C10391B0A984201D3000A083989
:10042C001B09984201D30009043902A2105C401840
:10043C007047C046040302020101010100000000E4
:10044C000000000010B5002803D000F005F80130C2
:10045C0010BD0020FCE7C046414208401C2101238E
:10046C001B04984201D3000C10391B0A984201D38B
:10047C00000A08391B09984201D30009043902A269
:10048C00105C401A7047C0461B1C1D1D1E1E1E1EF4
:10049C001F1F1F1F1F1F1F1F00B593B038220021E5
:1004AC0004A81BF033F81022002168461BF02EF82C
:1004BC008020800002F0DEF8022304930B930C934F
:1004CC000E330E9380239B020F93802380229B0478
:1004DC0052001093C023402107920022DB0504A890
:1004EC00089209910D92119302F0F4F8002801D0B2
:1004FC0072B6FEE70722022300920193002200232A
:10050C00022168460292039302F0A2FB002801D05C
:10051C0072B6FEE713B000BDF0B58BB001F01EFC57
:10052C00FFF7BAFF1422002104A81AF0EFFF0423EE
:10053C00634C0125626BA0201A436263626B6149B4
:10054C0013400093009B2023626BC0051A43626327
:10055C00626B002613400193019B636B02272B43B4
:10056C006363636B2B400293029B0223626B1A43FF
:10057C006263626B134003930122039B02F074F8D5
:10058C00802101225048C90102F06EF8822200231A
:10059C0092014E4804A904920593069601F0C6FEFA
:1005AC00C423A02001229B0304A9C0050492059337
:1005BC00069601F0BBFE02220123A02004920593B3
:1005CC000122022304A9C0050692079301F0AEFE96
:1005DC0000233F4A3C4804A904920593069601F077
:1005EC00A5FE802201230026D201374804A90492DB
:1005FC0005930696079701F099FEC022A0200123CF
:10060C00920004A9C005049205930696079701F081
:10061C008DFE80232F4ADB03116805200B431360EA
:10062C000321002201F0DEFB052001F00DFCA36B81
:10063C0000222B43A363A36B02211D4009200495C8
:10064C00049B01F0CFFB092001F0FEFB00220121ED
:10065C000A2001F0C7FB0A2001F0F6FB0021002262
:10066C000B2001F0BFFB0B2001F0EEFB0021002062
:10067C0000F064FC002801D072B6FEE7002001F007
:10068C0055FA002801D072B6FEE7010000F046FBD7
:10069C00002801D072B6FEE700F0F2FC002801D071
:1006AC0072B6FEE707F068FB19F032FD19F08AFD0F
:1006BC001AF088FA15F048FA022001F075FBF9E7F8
:1006CC00001002400203000000040050000800501B
:1006DC00131000000000014001220C4B00B5196CF6
:1006EC00C02011431964196C83B00A408021009218
:1006FC00009ADA6B49050A43DA63DB6BC0000B40E6
:10070C000193019B01F062FB03B000BD001002409D
:10071C00FEE7C046FEE7C0467047C0467047C0467D
:10072C0010B501F02FFB012013F03CFA10BDC046B0
:10073C0010B5024801F0BCFD10BDC046D40300202A
:10074C0010B5024801F03CFD10BDC0461C01002054
:10075C0010B5034801F034FD024801F031FD10BD25
:10076C00C0000020D401002010B5024801F028FD83
:10077C0010BDC0467801002010B5024803F008FEF9
:10078C0010BDC0463002002010B5024803F000FE38
:10079C0010BDC046BC02002070B5A02504000E4A56
:1007AC000E49136CED050B4013642800202101F059
:1007BC00C9FE2800402101F0C5FE8021280001F06F
:1007CC00C1FE606D01F0EEFBA06D01F0EBFB19209A
:1007DC0001F046FB70BDC04600100240FFEFFFFF6A
:1007EC000F4A1049D36B70B50F4D0B40D363040007
:1007FC002800042101F0A6FE2800082101F0A2FE29
:10080C0080210A48890101F09DFE606D01F0CAFB50
:10081C00A06D01F0C7FB1A2001F022FB70BDC04691
:10082C0000100240FFBFFFFF000800500004005002
:10083C00F0B5D6464F464646804680203A4BC0B56A
:10084C00196C4001014319641A6C88B00240009283
:10085C00009A0122596BA024114359635B6B00254C
:10086C001A400192022603272022019B0223E40551
:10087C00200002A90292039304960597069501F0B5
:10088C0055FD40220223200002A9029203930496F4
:10089C000597069501F04AFD8022022302A920004B
:1008AC000292039304960597069501F03FFD1F4CA9
:1008BC001F4B8027236011236360013B9A46A36082
:1008CC00703399462361802680237F00F6009B01BC
:1008DC002000E5606761A661E561236201F0EAFA38
:1008EC0043465C65A362134C134B200023605346B4
:1008FC0063604B46A5602361E5606761A661E561B5
:10090C00256201F0D7FA4346002202219C6519208A
:10091C00A36201F067FA192001F096FA08B0E0BC66
:10092C00BA46B146A846F0BD001002401C0100209A
:10093C0008000240C00000201C000240F0B5CE466A
:10094C004746060080203F4B80B5D96BC001014360
:10095C00D963DA6B8BB002400192019A0422596B75
:10096C00022411435963596B03250A400292029ADF
:10097C000222596B344F114359635B6B38001A4098
:10098C000392039B0422022304920593012304A9DE
:10099C00984606940795089301F0C8FC0822022398
:1009AC00049205934346380004A9069407950893CE
:1009BC0001F0BCFC802206940795022300259201CD
:1009CC0004A9224804920593089501F0AFFC204C31
:1009DC00204B8027236013236360033BA360703399
:1009EC0099462361FF00803320009846E5606361DF
:1009FC00A761E561256201F05DFA7465A662164B8C
:100A0C00164C2360122363604B462361434663619B
:100A1C00802320005B012362A560E560A761E5618E
:100A2C0001F048FA002201211A20B465A66201F0F7
:100A3C00D9F91A2001F008FA0BB0C0BCB946B0467F
:100A4C00F0BDC046001002400008005000040050E9
:100A5C00D401002030000240440002407801002004
:100A6C00084A10B51368002B09D0013B1360002B0A
:100A7C0005D1054802F0A8FD002800D110BD0820C2
:100A8C004042FBE7B80000203002002080230A001F
:100A9C005B01010010B5054802F012FE43425841BB
:100AAC00434206201840063810BDC04630020020D4
:100ABC0080230A005B01010010B5054803F080F8A3
:100ACC0043425841434206201840063810BDC046E8
:100ADC00300200200A0010B50100054803F030FA7E
:100AEC0043425841434206201840063810BDC046C8
:100AFC0030020020084A10B51368002B09D0013BC6
:100B0C001360002B05D1054802F05EFD002800D1D2
:100B1C0010BD08204042FBE7BC000020BC020020B6
:100B2C0080230A005B01010010B5054802F0C8FDE6
:100B3C0043425841434206201840063810BDC04677
:100B4C00BC02002080230A005B01010010B505489F
:100B5C0003F036F843425841434206201840063809
:100B6C0010BDC046BC0200200A0010B501000548AB
:100B7C0003F058FB434258414342062018400638C4
:100B8C0010BDC046BC020020E0220F4B10B5036024
:100B9C008223D200C26080225B004360002392005B
:100BAC008261F93AFF3AC261013A836003614361A1
:100BBC0003624362836203634363C26202F040FCDC
:100BCC00431E9841C0B210BD0030014070B51A4BA5
:100BDC001A4A1B4C23601368591C1160002B01D05E
:100BEC00002070BD200003F081FC0028F8D1154DC9
:100BFC002B68002B15D15D22A3542732A35004324D
:100C0C00A35008212000104A02F0FEFC002810D14D
:100C1C00092120000D4A02F0F7FC002809D101231C
:100C2C002B602000FFF7B0FF0028D9D008204042ED
:100C3C00D7E70A204042D4E700300140B80000203A
:100C4C0030020020B00000203D080008A507000875
:100C5C00E0220F4B10B503608223D200C2608022C9
:100C6C005B004360002392008261FA3AFF3A836092
:100C7C0003614361C3610362436283620363436341
:100C8C00C26202F0DDFB431E9841C0B210BDC046EB
:100C9C000038004070B51A4B1A4A1B4C236013687D
:100CAC00591C1160002B01D0002070BD200003F0F6
:100CBC001DFC0028F8D1154D2B68002B15D15D2299
:100CCC00A3542732A3500432A35008212000104A09
:100CDC0002F09AFC002810D1092120000D4A02F0E4
:100CEC0093FC002809D101232B602000FFF7B0FFF3
:100CFC000028D9D008204042D7E70A204042D4E748
:100D0C0000380040BC000020BC020020B4000020D1
:100D1C0049090008ED0700087047C046024B8000E7
:100D2C00195000207047C04648030020002370B5BE
:100D3C0005000C000B702F48802101F08FFC00285F
:100D4C0002D10123237070BD80212B48490101F091
:100D5C0085FC002821D1294BAD00EB58002B18D075
:100D6C00012B3ED0022B29D0032B13D1042011E0F0
:100D7C000121214801F072FC002821D11F4BAD004C
:100D8C00EB58002BF2D0012B18D0022B29D0032BBF
:100D9C0000D1022020700020D5E71021164801F068
:100DAC005DFC0028E4D1154BAD00EB58002B18D09E
:100DBC00012BEED0022BD9D0032BEBD10520E9E788
:100DCC0002210D4801F04AFC00280CD10B4BAD0060
:100DDC00EB58002BF2D0012BC8D0022BD9D0032B0F
:100DEC00D8D10320D6E72078431E984180000438E0
:100DFC00A9E7C0460008005000040050480300203A
:100E0C000B2040427047C04610B500F0CDFF0020CB
:100E1C0010BDC04610B500F0C1FF10BD70B5A024C8
:100E2C008025E405AD00A56289B2FFF72FFEA56110
:100E3C0070BDC046F8B5A02480258027054EAD00B6
:100E4C00FF01E405A56289B2B762FFF71FFEB76127
:100E5C00A561F8BD00040050F8B5104B4746984604
:100E6C008023CE46DB01994680B5A02680274346D9
:100E7C004A46F605BF00B7620C009A6201210500D4
:100E8C00FFF704FE43464A4628009A61A1B2FFF7D9
:100E9C000FFEB761C0BCB946B046F8BD00040050A7
:100EAC00A023802210B5DB0592009A6289B2FFF76D
:100EBC0011FE10BD10B5FFF7D3FD10BD70B5A02409
:100ECC000225E4056420A56200F06EFF6420A56194
:100EDC0000F06AFF802380229B00A3610F4BD2019C
:100EEC009A62FFF773FE041E01D0200070BDC02172
:100EFC000B4DC904280001F0D3F901212800094A3F
:100F0C0001F0BAF902212800074A01F0B5F90021D5
:100F1C00064A074802F078FBE7E7C0460004005099
:100F2C00D40300202512000809120008D51100086E
:100F3C00300200200B2040427047C046F0B5CE4630
:100F4C00474680B50D008FB0002800D06DE0032916
:100F5C006BD800F06FF90024002805D020000FB0EA
:100F6C00C0BCB946B046F0BD3449354B354F0B606B
:100F7C00354B38004B60354B01940B61344BCB60D7
:100F8C00344B4B61344B8B61344BCB61344B0B6228
:100F9C00344B4B62344B8B6200F0E0FC002847D1A1
:100FAC00324B334E98461F6028233000F36102F019
:100FBC0047FA00283FD12F4B01A9994643461868A0
:100FCC004B469B689847002832D12B4B019A9A428A
:100FDC002ED13000F46102F033FA00282BD14A46AE
:100FEC00264B03941A604823FC546B461C72552301
:100FFC006A460493543B137709221D2308920993E4
:10100C00022201230A920B93032202230C920D93CA
:10101C00434618684B4606941B68059502A99847E9
:10102C00041E9BD00524644298E70224644295E791
:10103C000724644292E7082464428FE74C030020A3
:10104C00C90E000880030020C10E00080D0E000818
:10105C00410E0008290E0008AD0E0008650E0008B0
:10106C00410F0008210E0008150E0008780300201F
:10107C003002002014000020528585007C030020E3
:10108C0070B50021050000F0EDF8002811D10C4BD3
:10109C001B68DB68002B0FD00A4A10689847C443C2
:1010AC000523E4171C402800053C00F0CBF8200079
:1010BC0070BD03246442FAE70B246442F7E7C04690
:1010CC007C03002078030020F0B5C6460C00190004
:1010DC00344B00B51B6805005F69160082B0002F09
:1010EC0056D0314B089A18680A9B0093099BB84755
:1010FC0000284DDB002C2DD10A9C099B00215C4360
:10110C002800640000F0AEF8002844D1274B984624
:10111C005B69002B42D0F023254F1B013800FB608C
:10112C0002F08EF9434661085B6930009847C4436E
:10113C000523E4171C40E0233800DB00FB6002F0C1
:10114C007FF92800053C00F07DF8200002B080BC3F
:10115C00B846F0BD0A9C099B00215C432800640042
:10116C0000F080F8002816D1104DAB69002B15D07B
:10117C00F0230F481B01C36002F062F9AB696108F0
:10118C0030009847C4430523E4171C40053CDCE7BA
:10119C0008246442D9E703246442D6E70B24644252
:1011AC00D3E7C0467C030020780300204C030020CA
:1011BC003002002010B5002800D010BD00F070F8EF
:1011CC00FBE7C0467047C0460A4B10B5984200D0AA
:1011DC0010BDA0238022DB0592009A61E023DB0086
:1011EC00C36002F02DF9002000F034F80020FFF766
:1011FC00E9FFEDE7300200207047C04610B5022130
:10120C00044801F07BF8002200210020FFF7F4FFD6
:10121C0010BDC046D403002010B50121044801F0D4
:10122C006DF8002201210020FFF7E6FF10BDC0463B
:10123C00D40300200022024B00201A707047C046D5
:10124C00E00300200022024B1A5400207047C046D5
:10125C00E00300200022024B1A5400207047C046C5
:10126C00E0030020F8B504000D0000F097FD0B4FD3
:10127C0006003B5DD8B2002B0BD0002D05D10BE046
:10128C0000F08CFD801BA84206D23B5DD8B2002B2F
:10129C00F6D101333B55F8BD0320FCE7E0030020F9
:1012AC00024A135C002BFCD100207047E0030020A5
:1012BC0010B54368984710BD024B00209B680B602B
:1012CC007047C046E4030020024B00201B680B60F3
:1012DC007047C046E4030020024B00205B680B60A3
:1012EC007047C046E4030020030010B5080011004D
:1012FC001B69984710BDC046030010B508001100CB
:10130C00DB68984710BDC046030010B508001100FB
:10131C005B69984710BDC046030010B5080011006A
:10132C009B69984710BDC046030010B5080011001A
:10133C00DB69984710BDC046030010B508001100CA
:10134C001B6A984710BDC04600B583B06B46D91DCB
:10135C00292301222C300B7000F038FB03B000BDA8
:10136C0000B583B06B46D91D282301222C300B709D
:10137C0000F02CFB03B000BDF0B5C646062300B54B
:10138C0082B06B449846184B8A00D358424613706F
:10139C006B4607000C00D91D36232C3701220600A2
:1013AC0038000B7000F012FB01220500414638009A
:1013BC0000F012FB2818002812D10C4B9C60023C48
:1013CC00012C09D9A022F021520006C3F164326528
:1013DC0002B080BCB846F0BDA021F0224900F4E771
:1013EC0001204042F4E7C04604000020E403002042
:1013FC00F0B5CE46474680B583B0904699466A46CE
:10140C002A23D3706B460E000122D91C2C3001AD5F
:10141C00070000F0DBFA330A2B704B46F2B2013BAB
:10142C006A709E19D2182900EA7004000422380050
:10143C00360AAE7000F0D0FA6A462B23D3706B4696
:10144C000122D91C2418380000F0C0FA43460A9A2D
:10145C001B0A511E42462B7043468A18DBB2120AF5
:10146C006B70AA705B180422290024183800EB70EA
:10147C0000F0B2FA6A462C23D3706B462418D91CA0
:10148C000122380000F0A2FA2018431E9841404275
:10149C0003B0C0BCB946B046F0BDC0460423F0B59D
:1014AC0083B001AC0D00042221002C30019300F01C
:1014BC0099FA002834D16278A178E6780F021304E7
:1014CC003B43194F33432B60BB4214D0237854B2A7
:1014DC005B00DBB2002C1BDB52004CB2D2B2002CF6
:1014EC000EDB490076B2C9B2002E06DB1B041202D9
:1014FC001A431143296003B0F0BD01242143F5E7E1
:10150C000124490076B22243C9B2002EEEDAF4E788
:10151C000124520023434CB2D2B2002CE1DAEFE7A3
:10152C0001204042E7E7C04652858500F0B54546AC
:10153C00DE4657464E46E0B5040088468BB0002880
:10154C0000D1EAE1CB68032B00D9E6E14823C35C68
:10155C000020002B06D00BB0F0BCBB46B246A9460F
:10156C00A046F0BD02AB9C460D2526001023654419
:10157C002C360122290030002B7000F027FA636A08
:10158C00814698470700636A9847C01B0928FAD917
:10159C0001230122290030002B7000F017FA636A36
:1015AC00814498470700636A9847C01BC728FAD93B
:1015BC0011230122290030002B7000F007FA636A16
:1015CC00814498470700636A9847C01B7728FAD96B
:1015DC0013230122290030002B7000F0F7F9636A05
:1015EC00814498470700636A9847C01B6328FAD95F
:1015FC00B0232B70002306AF3B7043461B782900A9
:10160C00013B5A4253410822DB00F0337B70924677
:10161C003000073A00F0DAF9022281443900300038
:10162C0000F0DAF903004B44039343465B68002B4C
:10163C0000D008E1BC4B99464346DB6802AA9446AD
:10164C009A460E2363449B4653464A469B00D35806
:10165C005A460F21137036236144012230000B705F
:10166C0000F0B4F9012281465946300000F0B4F97B
:10167C004844002800D053E15346AC4A9360023BE7
:10168C00012B00D80AE1A023F0215B000AC2E1641F
:10169C002365A0235B000022002100932000503B17
:1016AC00FFF7A6FE039B012299463A232B70434673
:1016BC009B6829003B708144300000F087F90122BF
:1016CC0039008144300000F087F9C6232B70B73BFA
:1016DC003B70012229008144300000F077F901228F
:1016EC0039008144300000F077F9B2232B70904B15
:1016FC0001220693332329003B718144300000F012
:10170C0065F9052239008144300000F065F9B723F2
:10171C002B70823B3B7001222900814430009A4699
:10172C0000F054F9012239008144300000F054F9E2
:10173C00BB232B709C3B3B70012229008144300061
:10174C0000F044F9012239008144300000F044F9E2
:10175C00C0232B70943B3B70012229008144300044
:10176C0000F034F9012239008144300000F034F9E2
:10177C00C2232B706F4B01223B8029008144300027
:10178C0000F024F9022239008144300000F024F9E1
:10179C00C4232B70A43B3B700122290081443000F0
:1017AC0000F014F9012239008144300000F014F9E2
:1017BC00D0232B70604B01223B80290081443000E8
:1017CC0000F004F9022239008144300000F004F9E1
:1017DC00E0232B70594B01220693594B2900079398
:1017EC00584B81440893584B3000BB8100F0EEF805
:1017FC000E2239008144300000F0EEF8E1232B700A
:10180C00524B01220693524B29000793514B8144B2
:10181C000893514B3000BB8100F0D8F80E22814464
:10182C003900300000F0D8F843461B7D8144012B71
:10183C0038D0022B5DD0482301224846E254431E87
:10184C009841404287E6384B524699461B6829001E
:10185C0013434A4613605368524613434A46536037
:10186C009368524613434A4693605346D2683000FD
:10187C0013434A46D360C0232B70B43B01223B7008
:10188C0000F0A4F8039B01229A46390082443000F0
:10189C0000F0A2F8030053440393CDE6A021F023FB
:1018AC004900F3E643330122290030002B7000F08D
:1018BC008DF800239B463B7043461B6981447B702B
:1018CC0002223900300000F087F853462B705B463B
:1018DC008144290001223B70300000F077F8484425
:1018EC00050001223900300000F076F8A946814449
:1018FC00A1E742330122290030002B7000F066F87A
:10190C00002381443B8002223900300000F064F84F
:10191C00534681442B700123DBE7012040421AE639
:10192C00039B013B0393B4E604000020E403002076
:10193C000C0C003301C3FFFFA4A1FFFFD00811085A
:10194C000C15393350361314292D0000D00810080B
:10195C0006063944510B16142F31000010B500281F
:10196C0024D00B684A68036042600A890281CA6805
:10197C00C2600A6902614A6942618A698261CA6904
:10198C00C2610A6A02624A6A42620A4A02630A4AEB
:10199C00C2620A4A42630A4A82630A4AC2630A4A18
:1019AC0002644064002B01D0984710BD01204042D6
:1019BC00FBE7C046F51200080513000815130008D4
:1019CC00251300083513000845130008030010B553
:1019DC0080691B68984710BD030010B580699B682F
:1019EC00984710BD030010B580691B69984710BD5E
:1019FC000B2040427047C046032330B583B005002E
:101A0C0001A803700B0C43700B0A83701400A02305
:101A1C008022DB055200C17004219A62FFF780F826
:101A2C00002801D003B030BD2800A1B2FFF79CF80C
:101A3C00F8E7C046032330B583B0050001A8037056
:101A4C000B0C43700B0A83701400A0238022DB055F
:101A5C005200C17004219A62FFF762F8002806D088
:101A6C00A0238022DB0552009A6103B030BD280010
:101A7C00A1B2FFF767F8F3E710B5FFF73BF810BD1D
:101A8C00F0B585B0FFF706F9041E02D0200005B0B2
:101A9C00F0BDA02580266623ED05760002AAAE6275
:101AAC000121137103A8FFF73BF8AE61041EEDD1C1
:101ABC00992302AAAE620121137103A8FFF730F833
:101ACC00AE610400142000F06FF9002CDED1104F31
:101ADC00104B114A1F60114B3800136020221B68F9
:101AEC00BC5401939847053C0028CFDB01210C4ADC
:101AFC00786A01F089FDF02302AA9B0093800221F1
:101B0C00AE6203A8FFF70CF8AE610400BEE7C04656
:101B1C00180400201004002014040020A0B50108B3
:101B2C00B51B00080B2040427047C04610B5002082
:101B3C0000F04EF8002801D0002010BD0E4B0F49CC
:101B4C0018600F4B18600F4B0F480B600F4B4B601E
:101B5C000F4BCB600F4B0B610F4B4B610F4B8B61E2
:101B6C0090231B068B600E4B436200F0B7F80028E5
:101B7C00E2D005204042E0E710040020F0030020F2
:101B8C00140400208D1A000818040020851A00087F
:101B9C00FD190008311B0008411A0008051A00083D
:101BAC00BC0200207047C046084B10B55B6A8342EC
:101BBC0000D010BDA0238022DB0552009A610020CA
:101BCC0000F00EF80020FFF7EDFFF2E718040020FC
:101BDC000022024B00201A707047C04640040020BF
:101BEC000022024B1A5400207047C04640040020CB
:101BFC00031E07D02022815C0020002901D1013175
:101C0C009954704701204042FBE7C04610B5436829
:101C1C00984710BD80231B040360802380215B0246
:101C2C0043608023490183604161802380228021AD
:101C3C001B0252000901C36002618161C26103622F
:101C4C000020704710B504001000002904D11900C1
:101C5C006469029AA04710BD01204042FBE7C046D0
:101C6C0010B504001000002904D11900A469029ACF
:101C7C00A04710BD01204042FBE7C04610B5040050
:101C8C001000002904D11900E468029AA04710BD85
:101C9C0001204042FBE7C04610B5040010000029AB
:101CAC0004D119002469029AA04710BD01204042BA
:101CBC00FBE7C046012040427047C046012040422D
:101CCC007047C046012040427047C0460120404248
:101CDC007047C046012040427047C04610B50028EE
:101CEC0013D04A680B6842608A6803608260CA68D5
:101CFC00C2600A6902614A6942618A698261CA6981
:101D0C00C261002B01D0984710BD01204042FBE777
:101D1C0010B50F4B04001978002901D1012010BD1A
:101D2C00FA208000FEF7FAF90A4B01001868FEF75A
:101D3C00F5F900F0A5F80028F0D1032CEED8013805
:101D4C000022210000F04EF8034B00201C60E6E757
:101D5C006400002000000020680000208023084A56
:101D6C005B00116810B50B4300201360FFF7D0FF28
:101D7C00041E02D00124200010BDFEF7ADFCFAE7D2
:101D8C0000200240034A044B11681B785B18136057
:101D9C007047C0464404002064000020014B1868C2
:101DAC007047C0464404002070B50400FFF7F6FFEE
:101DBC000500631C02D0044B1B78E418FFF7EEFF00
:101DCC00401BA042FAD370BD64000020034A0449B2
:101DDC0013680B40034313607047C046000001407A
:101DEC00FFF9FFFF70B5002814DB154B03229C464E
:101DFC00FF23840810401A00C026C00089018240CD
:101E0C000B408340A4006444B600A55995432B4372
:101E1C00A35170BD0B4A0F2394460322034010407C
:101E2C00FC321500C000890185400A408240083B05
:101E3C009B089B006344DC69AC432243DA61E8E70E
:101E4C0000E100E000ED00E0002805DB1F23184056
:101E5C001E3B8340014A13607047C04600E100E01E
:101E6C0000280ADB1F2318401E3B834080220349B5
:101E7C008B50BFF34F8FBFF36F8F704700E100E0C3
:101E8C008022431E5204012093420ED2C021074AE5
:101E9C0007485360036A09061B021B0A0B430362C3
:101EAC0000230020936007331360704710E000E0BC
:101EBC0000ED00E0F0B5C646040000B5002862D085
:101ECC000568324B1421E818FEF728F983002364C7
:101EDC0002222523E2542B682D4AA66813402B605E
:101EEC00E368216933430B4361692A680B43A16999
:101EFC000B43E1690B43216A0B4313432B60254BC6
:101F0C0014219C4660448700FF20234B2840A36487
:101F1C00676408389846FEF701F91F230122034035
:101F2C00100098408023E064DB019E4221D03F23C7
:101F3C00454661680B4001393B60686003291DD838
:101F4C0003201649164D5918013B03409A400023B3
:101F5C00890021656565A2650B606A6000232522F6
:101F6C0001210020E363A154013AA35480BCB8467C
:101F7C00F0BD002363603B6043465860002323653B
:101F8C006365A365EAE70120F0E7C046F8FFFDBFF3
:101F9C000F80FFFF00820010800802403F8200107B
:101FAC0040090240F8B5CE464746040080B50028EB
:101FBC0051D003680126984642461B682748B34314
:101FCC00136014214044FEF7A9F80027434685000E
:101FDC00234925641F604B681C229C4633002A4011
:101FEC009340624613434B601E4B14219C461E4B80
:101FFC00604485009946A364FF20434618406564FD
:10200C000838FEF78BF81F23320003409A40130068
:10201C00E2644A462F60536063685A1E032A11D942
:10202C0000232522002023656365A365E3622363F7
:10203C006363A363E363A354013AA354C0BCB946DE
:10204C00B046F8BD094996408C4663449B001F601E
:10205C00074B5E60E4E70120F0E7C046F8FFFDBFE8
:10206C000000024000820010800802403F820010F5
:10207C0040090240F0B5C646242400B5055D012D8B
:10208C004FD0012525260555855DEFB2012D07D0D2
:10209C008023C36300230355012080BCB846F0BDE8
:1020AC00223C84550024C4630468C66C2568BD4377
:1020BC002560856C6E60066D002E02D0456D876DB7
:1020CC006F601C271E4DAC466D68A846056C2F40F2
:1020DC000125BD4047463D4367467D60636083688C
:1020EC00102B20D0A160E260036B002B1ED00E22BF
:1020FC00236813432360436C1A68D20304D58022EF
:10210C00196852000A431A60002E04D080233268EA
:10211C005B001343336001222368002013432360C8
:10212C00BBE70220B9E7A260E160DDE70422236887
:10213C00934323602368063213432360DBE7C046D6
:10214C0000000240252370B5C35C022B03D004238E
:10215C00C363012070BD0E210268174C1368066C16
:10216C008B4313600123116899431160416C0A6819
:10217C0022400A601C223240934010494D682B4388
:10218C004B60C26C836C5A60036D002B05D01A68CF
:10219C0022401A60436D826D5A6025230122C2547D
:1021AC000022013BC254836B002B02D098470020C5
:1021BC00D0E70020CEE7C046FFFEFFFF0000024044
:1021CC002C4B70B51A6804251C23046C0168234041
:1021DC002C009C400E68224210D035420ED00B6869
:1021EC009B0602D40B68AB430B60224B5A6814431A
:1021FC005C60036B002B00D0984770BD02252C004F
:10220C009C40224217D0354215D00B689B0606D451
:10221C000A220B6893430B602523093AC254154BD1
:10222C005A6814435C6000222423C254C36A002BF6
:10223C00E3D09847E1E7082425009D402A42DCD0F2
:10224C003442DAD00A680634A2430A60012215002F
:10225C009D402B0007494C6823434B602523C263E8
:10226C00C2540022013BC254436B002BC5D098478B
:10227C00C3E7C046000002400300012905D0022933
:10228C000AD00120002903D0704742600020FBE7F0
:10229C0000205A609A60F7E782600020F4E7C0469D
:1022AC00002802D00160002070470120FCE7C046E6
:1022BC0070B501241F222600036805001A409640C1
:1022CC001B0C1C400B4B6401E3181A68164204D01B
:1022DC001E604368002B00D09847074B9C46644413
:1022EC0023681E4204D0AB682660002B00D09847B0
:1022FC0070BDC0460C18024010180240012210B5E7
:10230C0004681F20230C1340204082405B010129EC
:10231C0004D004498C4663441A6010BD02498C46B3
:10232C006344F9E7101802400C180240F0B5DE4681
:10233C0057464E464546E0B50C688C4600220023B5
:10234C0083B0002C7ED07B498B46614601910126DF
:10235C0021009E4031408A4634426DD0019D69680F
:10236C0003250D40AC46013D012D00D871E06546BA
:10237C00032D00D0B5E066469640F54300950768FE
:10238C00009D3D4035430560C025AD02294253D028
:10239C00684E0327B4469D081F40FF00AD006544FE
:1023AC00BC462E6E0F27B1466646B7403E004F46E0
:1023BC00B743B946A027FF05B84212D05E4FB842CA
:1023CC0000D1A7E05D4FB84200D1ABE05C4FB84202
:1023DC0000D198E066460527B7403E004F4637438C
:1023EC00B9464E462E6680265D46AD595646802728
:1023FC00F6437F02B046394200D081E035405F465B
:10240C008026BD5184257D598E0300D575E0464646
:10241C0035408426B4465E466746F5513568CE0293
:10242C0068D4464635405E463560756889025DD491
:10243C0041460D4059464D6021000133D9400232CE
:10244C00002984D103B0F0BCBB46B246A946A046D5
:10245C00F0BD8568A84603259540EF430097474695
:10246C00AF43019DB946EF689740B8464F46454685
:10247C002F43876045682F000125B7430E092E4076
:10248C009E403E434660C668009D2E40B046019D6E
:10249C004746AE6896403E43C660674666469640E1
:1024AC00022F00D06BE7DD08AD00AC4684446546D6
:1024BC002D6AA94607252F001F40BD000F27A846EF
:1024CC00AF404D46BD434746A946019D2D69BD40D1
:1024DC00A8464D4647463D43A94665464F462F62A2
:1024EC004DE703259540ED430095CCE75146294334
:1024FC000D009FE75646354395E75646354388E72A
:10250C00564635437BE767460326BE404F46374366
:10251C00B94666E766460127B7403E004F4637434B
:10252C00B9465EE767460226BE404F463743B9467A
:10253C0057E7C04600180240000400500008005045
:10254C00000C0050F0B5DE4657464E464546E0B509
:10255C00002383B0002965D00122914602329346B4
:10256C003A4A944644E03A4CA04262D0394CA042DC
:10257C0063D0394CA04264D00524AC402500AE4257
:10258C0014D18024654666462D59BD43355104341B
:10259C003559BD43355144463568BD433560756882
:1025AC00BD437560019E356EA54335665E465D0084
:1025BC00AE400468350034430460DC08A400041900
:1025CC00266A0727B0460F261F40BF00BE403700C3
:1025DC004646BE4326628468AC4384604468944398
:1025EC004460C268AA43C2600A000133DA4019D0C1
:1025FC004A460F009A4017401142F5D0134D9C08E3
:10260C00A846A4005D464444266E01940F241D4048
:10261C00ED00AC40A0462640A024E405A042A2D187
:10262C000025ACE703B0F0BCBB46B246A946A046B9
:10263C00F0BD4C46AC402500A1E70224AC4025007F
:10264C009DE75C46AC40250099E7C0460018024067
:10265C000004005000080050000C005000690840B5
:10266C00431E9841C0B27047002A01D08161704767
:10267C008162FCE770B5134C134A236800251340A4
:10268C000343236080239B00984201D0280070BD37
:10269C000E4B0F491B685800C0184000FDF73EFD5B
:1026AC0080226369D2000130134202D1EEE7002888
:1026BC0005D0636901381342F9D10025E6E70325FB
:1026CC00E4E7C04600700040FFF9FFFF0000002067
:1026DC0040420F00F0B5CE46474680B5040083B0AB
:1026EC00002800D1F9E00368DA0731D53822C54952
:1026FC008868C9680240102A00D1F4E0082A00D189
:10270C00F5E0802263685202934200D102E1A021DD
:10271C00C9028B4200D1DDE1BA4DBB492A680A409F
:10272C002A602A68B9490A402A60002B00D0F5E0DB
:10273C00FFF734FB80270600BF0205E0FFF72EFBF6
:10274C00801B642800D93DE12B683B42F6D12368FD
:10275C009A072CD53823AB4A91680B40D168102BC3
:10276C0000D1ECE0002B00D0EEE013685B0500D547
:10277C00AFE051686369A6481B0201400B435360EC
:10278C00A04AA44913680B4021690B4313601368DA
:10279C00A14A9B045B0FDA401300A04A1360A04BC4
:1027AC001868FFF7B5FA002800D096E023681A07DE
:1027BC0071D45B0745D53823924A91680B40202B86
:1027CC0000D1E7E080230020D16B5B0581461942E4
:1027DC0008D1D16B1943D163D26B13400193019B88
:1027EC000123994680278F4E7F0033683B4200D1EE
:1027FC00D9E0A368012B00D128E1052B00D1C8E159
:10280C000121804EF26D8A43F265F26D03318A43E9
:10281C00F265002B00D01DE1FFF7C0FA0223070080
:10282C009846814D05E0FFF7B9FAC01BA84200D9C4
:10283C00C8E04246F36D1A42F5D14B46012B00D14C
:10284C0061E1E369002B24D038226E4DA9680A405F
:10285C00102A00D110E1022B00D15AE12B68734AE7
:10286C008026134003222B60EB68B6049343EB6085
:10287C00EB686F4A1340EB60FFF790FA040005E039
:10288C00FFF78CFA001B022800D99BE02B6833421F
:10289C00F6D1002022E038225A4DA9680A40182AA5
:1028AC002FD0A369002B00D18EE001222B6E0227C2
:1028BC0013432B66FFF772FA060005E0FFF76EFA7A
:1028CC00801B022800D97DE02B6E1F42F6D02368B6
:1028DC006FE7E368002B00D04BE7012003B0C0BCCE
:1028EC00B946B046F0BDC9438A0700D009E7454A4E
:1028FC001268920300D42BE76268002A00D027E705
:10290C00EBE72A6E920700D453E7A269002A00D0A5
:10291C004FE7E2E73B4A11680B431360FFF73EFABF
:10292C0080260500374FB60204E0FFF737FA401B4C
:10293C00642847D83B683342F7D0236808E70D3B3F
:10294C000B40022B00D1CFE0E3682E4D002B4ED074
:10295C002B68304A802713402269FF0013432B60F9
:10296C0080232A685B0013432B60FFF717FA0600DD
:10297C0004E0FFF713FA801B022823D82B683B4294
:10298C00F7D06A68636922491B020A4013436B60E3
:10299C0023680CE7D36D9B0700D452E7A368002B88
:1029AC0000D04EE799E733683B433360FFF7F6F905
:1029BC00050033683B4200D01BE7FFF7EFF9401BE3
:1029CC000228F6D9032089E701222B6E02279343B4
:1029DC002B66FFF7E3F9060004E0FFF7DFF9801B35
:1029EC000228EFD82B6E1F42F7D12368E1E62B6843
:1029FC00104A802713402B60FFF7D0F9FF00060028
:102A0C001FE0C04600100240FFFFFEFFFFFFFBFF70
:102A1C00FF80FFFFFFC7FFFF0024F4000000002031
:102A2C00680000200070004088130000FFFFFFFECC
:102A3C00FFFFFEEEFFFEFFFFFFF7B0F9801B022841
:102A4C00C0D82B683B42F7D12368B0E65649CA6D13
:102A5C001343CB65FFF7A2F9534B060098460227A8
:102A6C00524D04E0FFF79AF9801BA842AAD84346BE
:102A7C00DB6D1F42F6D0E0E6012B00D12DE70323DE
:102A8C00EA68216A13408B4200D026E77023616A02
:102A9C0013408B4200D020E7FE21A36AC9011140EC
:102AAC001B02994200D018E7F823E16A9B031340FC
:102ABC008B4200D011E7E023216B1B0513408B42A6
:102ACC0000D00AE7636B520F52079A4200D004E71A
:102ADC00002003E78021344BC902186801431960B8
:102AEC0019680A431A6019E713685B0503D5E36894
:102AFC00002B00D1F1E6516863692D481B0201409F
:102B0C000B4353604BE6284A2A49D36B0B40D363E3
:102B1C0097E62B68284A802713402B60FFF73EF975
:102B2C00BF04060005E0FFF739F9801B022800D925
:102B3C0048E72B683B42F6D1616A236AEA680B438B
:102B4C001E49194E0A401343E26A1343226B134386
:102B5C00626B1343A26A12021343EB6080232A6850
:102B6C005B0413432B608023EA685B051343EB6023
:102B7C00FFF714F980250400AD0405E0FFF70EF90A
:102B8C00001B022800D91DE733682B42F6D0002029
:102B9C00A4E60421044BDA6D0A43DA65DA6D0339D5
:102BAC000A43DA6556E7C04600100240881300005D
:102BBC00FF80FFFFFFFFFFEFFFFFFFFE8C80C111C7
:102BCC003823204A10B591680B4205D113681E4872
:102BDC009B045B0FD84010BD91681940082911D097
:102BEC009168194010290FD091681940202921D0E3
:102BFC0090681840183843425841FA234042DB0190
:102C0C001840E8E71148E6E7D368D168DB43D068A1
:102C1C004906490F40040131440E9B070DD00A4868
:102C2C00FDF77CFA6043074BD968490F0131FDF77A
:102C3C0075FAD0E780200002CDE70448FDF76EFA64
:102C4C006043F0E7001002400024F40000127A0008
:102C5C00F8B5CE46474605000C0080B5002826D0B6
:102C6C000722574E336813408B425ED32B689A076A
:102C7C000ED55A0705D5E0225249D2018868024385
:102C8C008A60504950488A680240A86802438A60AA
:102C9C00DB072BD56B684B4A012B00D17CE0022B58
:102CAC0007D0002B00D07DE01268520504D401201F
:102CBC0037E012689201FAD50721424EB2688A4376
:102CCC001343B360FFF76AF8382398463F4B07006D
:102CDC00994604E0FFF762F8C01B48453BD84346D1
:102CEC00B2681A406B68DB009A42F3D10722344E6B
:102CFC0033681340A34238D82B685B072DD4FFF7F9
:102D0C005FFF304B324A9B681B051B0F9B009B5887
:102D1C001F221340D8402F4B18602F4B1868FEF71A
:102D2C00F7FFC0BCB946B046F8BD336893430B43BC
:102D3C003360FFF733F807239846244B0700994676
:102D4C00424633681340A34200D18FE7FFF726F8C1
:102D5C00C01B4845F4D90320E3E71A4A1F4993687E
:102D6C000B40E9680B439360C9E7336893432343F3
:102D7C003360FFF713F807239846144B0700994666
:102D8C00424633681340A342B6D0FFF707F8C01B86
:102D9C004845F5D90320C4E71268920300D58BE7A8
:102DAC000120BEE7032B05D0D26D920700D583E737
:102DBC000120B6E7126E920700D57DE70120B0E73F
:102DCC000020024000100240FFF0FFFF88130000BB
:102DDC0060B501080000002068000020FF8FFFFF95
:102DEC007047C04610B5806A036F984710BDC04647
:102DFC0010B5806A436F984710BDC04610B5806A05
:102E0C00836F984710BDC0460321806A10B50268D5
:102E1C0053688B4353601022036E134303665D2388
:102E2C000F3AC254C36F984710BDC04600234622C8
:102E3C0010B5806A8352C387C36F984710BDC046D4
:102E4C00F0B5D6464F464646C0B582B06B46DC1C44
:102E5C00002316000F0023708046FEF79FFFF61923
:102E6C00361AFEF79BFF43461D68374B81461A689E
:102E7C0093009A18D3009B1A1B0D73430193C02324
:102E8C00DB002A009A467B1C12D1C0219368C90032
:102E9C000B4206D02B7BDBB22370237893680B425A
:102EAC00F8D1002002B0E0BCBA46B146A846F0BD4D
:102EBC00936852461342F4D02B7BDBB223702378F9
:102ECC00FEF76CFF4B46C01AB0420AD2019B5A1E49
:102EDC0093415B421E40019B013B019343461A68A0
:102EEC00D1E74346E0211B685A688A4341465A6041
:102EFC00822249685200914216D042468021926A41
:102F0C0089018A4208D05D2301224146CA5400221D
:102F1C00013B0320CA54C5E719680C4801401960ED
:102F2C0019680A431A60EEE742468021926809024A
:102F3C008A4203D08021C9008A42DED140211A681E
:102F4C008A431A60D9E7C04600000020FFDFFFFF6C
:102F5C007047C0467047C0467047C0467047C04671
:102F6C007047C0467047C0467047C0467047C04661
:102F7C007047C046F0B5DE4657464E464546E0B56E
:102F8C0085B06B46170000220D00DA710400FEF7C5
:102F9C0005FFEB191E1A9A46FEF700FF474B8046B9
:102FAC001A68994693009A18D3009B1A1B0D734309
:102FBC000293C0235B019B4622686B1C4AD1C02143
:102FCC00490193680B42FCD1FEF7E8FE53461E1AEA
:102FDC00FEF7E4FE4B461B6880465B011B0D7343FA
:102FEC0003938023994622686B1C46D180219368F9
:102FFC001942FCD13A0029002000FFF721FF0028DC
:10300C0022D105B0F0BCBB46B246A946A046F0BDE5
:10301C00E02123685A688A435A6082226168520010
:10302C0091423DD08021A26A89018A4206D1196859
:10303C0023480140196019680A431A605D23012274
:10304C00E2540022013BE2542022236E032013435E
:10305C002366D6E793685A461342B5D0FEF79EFE18
:10306C004346C01AB042D3D2029B5A1E93415B42D4
:10307C001E40029B013B02939EE793684A461A420C
:10308C00B8D0FEF78BFE4346C01AB042C0D2039BA9
:10309C005A1E93415B421E40039B013B0393A2E7E4
:1030AC008021A26809028A4203D08021C9008A4289
:1030BC00B8D140211A688A431A60B3E70000002097
:1030CC00FFDFFFFFF0B50C0083B00500FEF766FED6
:1030DC006434241AFEF762FE294B06001B685B0160
:1030EC001B0D634301932B689B681B062AD5802715
:1030FC000BE0019B5A1E93415B421C40019B013B20
:10310C0001932B689B681F421CD0FEF747FE801B67
:10311C00A042EED3E0212B685A688A435A6082227F
:10312C0069685200914217D08021AA6A89018A42AB
:10313C000AD05D230122EA5400220320013BEA5409
:10314C0003B0F0BD0020FBE719680E480140196080
:10315C0019680A431A60ECE78021AA6809028A42BE
:10316C0003D08021C9008A42DED140211A688A43EB
:10317C0080211A60AA6A89018A42DAD1E4E7C04642
:10318C0000000020FFDFFFFFF0B5C64600B5884603
:10319C0082B06B4600224446DA700500FEF7FEFD55
:1031AC00C0276434241AFEF7F9FD344B7F011A68EA
:1031BC00060093009A18D3009B1A1B0D63430193CE
:1031CC002B689B683B420CD12EE0019B5A1E93410D
:1031DC005B421C40019B013B01932B689B683B426B
:1031EC0022D0FEF7DBFD801B8442EED8E0212B6859
:1031FC005A688A435A60822269685200914229D0E7
:10320C008021AA6A89018A421CD05D230122EA54DA
:10321C000022013BEA54202203202B6E13432B6621
:10322C0002B080BCB846F0BD41462800FFF74AFF0B
:10323C000028F0D1424664212800FFF701FE002847
:10324C00EED0E8E719680E480140196019680A4386
:10325C001A60DAE78021AA6809028A4203D0802129
:10326C00C9008A42CCD140211A688A4380211A6055
:10327C00AA6A89018A42C8D1E4E7C046000000204E
:10328C00FFDFFFFF30B5050083B0846AFEF786FDD3
:10329C002B6820251B681D4204D02000636E9847C4
:1032AC0003B030BD022123685A68AA435A605A6899
:1032BC008A435A6001002000FFF766FF002802D005
:1032CC00236E1D432566A368002B06D1019323684A
:1032DC00DA6801929B680193019B00230122E3872A
:1032EC005D33E254236E002BD7D02000E36F984758
:1032FC00D6E7C04670B50500846AFEF74FFD2B6813
:10330C0020251B6801001D4203D02000E36E984766
:10331C0070BD226820005368AB435360FFF734FF45
:10332C00002802D0236E1D432566032122685368B2
:10333C008B43536000234622E387A3525D33453A07
:10334C00E254236E002BE0D02000E36F9847DFE7B8
:10335C008223426870B55B0004000E009A420CD0C8
:10336C0031002000FFF7AEFE051E1AD182236268E1
:10337C005B009A421BD0280070BD80228368120229
:10338C00934203D08022D2009342E9D1402122689B
:10339C00200013688B4313603100FFF793FE051E6A
:1033AC00E4D02022236E032513432366E3E7802217
:1033BC00A3681202934203D08022D2009342DAD146
:1033CC00320064212000FFF73BFD0028D3D0E8E752
:1033DC0070B50500846AFEF7E1FC20222B68010021
:1033EC001B681A421AD123685D689543A2685D6018
:1033FC00002A17D001205A6882435A602000FFF738
:10340C00A7FF002801D02023236646230022E25286
:10341C0017330132E254236E002B0DD12000A36E22
:10342C00984770BD05326068FF329042E2D10320AC
:10343C005A6882435A60E1E72000E36F9847F0E74F
:10344C00F0B5D6464F4646460400C0B5002800D11C
:10345C009DE0456A002D00D17FE0002303614361AC
:10346C000023A3625D33E35CDAB2002B1AD15C3328
:10347C00E2544B4B4B4A63664B4BA3664B4BE36698
:10348C004B4B23674B4B63674B4BA3674B4BE36730
:10349C008023E2508422A358002B00D17CE0200032
:1034AC009847656A5D2302224021E2542268E06855
:1034BC0013688B431360E023DB00984255D9F0234B
:1034CC001B01984265D18023A16A9B0119400023FE
:1034DC008C469A46822366685B0033408426A76834
:1034EC0036023E40334302262769A1693E403343EE
:1034FC0001266769B14637403B438027BF000F4028
:10350C003B433827E669090C374080263B4337009C
:10351C00266A374066463B43334313600823666B89
:10352C0057463340F02636013040184304231940E7
:10353C00084310210D4005432F435760D3692049A0
:10354C0000200B40D36100234A4623665D33E254CE
:10355C00E0BCBA46B146A846F0BD822342685B0087
:10356C009A4200D17CE7C5617AE7984206D0802365
:10357C005B019A4600239C46A362ABE78023A16AB9
:10358C009B01194080235B018C469A46A2E70120DF
:10359C00DEE700239A46EDE70A4BA3507FE7C046CF
:1035AC00652F00085D2F0008692F00086D2F00089B
:1035BC00712F0008752F0008792F00087D2F000847
:1035CC00FFF7FFFFED2D000810B5041E18D05D238A
:1035DC0002224021C254026813688B431360882274
:1035EC008358002B09D02000984700235D2200202F
:1035FC002366A354013AA35410BD024B8350F2E747
:10360C000120F9E7612F0008030030B5002A2ED005
:10361C005C201C5C012C30D001245D251C545C5DAD
:10362C00E0B2012C0CD0585D00280FD108291AD01B
:10363C00092914D080211A6E01300A431A660AE057
:10364C00092935D81D4C8800205887468021012037
:10365C001A6E0A431A665C220021995430BD8821E7
:10366C0000205A50F7E7842100205A50F3E78021BC
:10367C00026E0A4302660120F0E70220EEE7802189
:10368C0000205A50E7E708005A66E4E700209A66E3
:10369C00E1E70020DA66DEE700201A67DBE70020AE
:1036AC005A67D8E700209A67D5E70020DA67D2E797
:1036BC0080211A6E0A431A66CDE7C046D4B50108BC
:1036CC00F0B5C6461E005C2300B59046C25C0400F3
:1036DC000D0082B0012A00D17AE00122C254FEF71B
:1036EC005DFB5D22A35C0700D8B2012B0AD002203F
:1036FC005D230122E2540022013BE25402B080BC63
:10370C00B846F0BD002DF3D04346002BF0D0032378
:10371C00A354002342462366A287E28744222364F3
:10372C00A563A3520232A3522365E364802320686D
:10373C00A26801001B029A4200D17AE04023026881
:10374C00134202D1026813430360E023E268DB00FA
:10375C009A423FD96368002B00D1AEE04346012B5F
:10376C0000D1AAE0E38F002B1AD00222002E00D148
:10377C00C1E00225731C00D08BE002239846424620
:10378C0083681A4200D1A1E0A36B1A880233C2608D
:10379C00E58FA363013DADB2E587E38F002BEED13E
:1037AC003A0031002000FFF7E5FB002801D0202370
:1037BC002366A368002B06D101932368DA68019273
:1037CC009B680193019B206E431E9841C0B28FE70A
:1037DC00022093E76368002B65D04346012B62D02F
:1037EC00E38F002BDCD00222002E00D198E00225C2
:1037FC00731C35D102239846414623689A681142BE
:10380C0011D0A26B12781A73E58FA36B013DADB288
:10381C000133E587A363E38F002BC1D041462368B6
:10382C009A681142EDD1FEF7B9FAE38F002BE3D180
:10383C00B6E7402203689343036080230268DB01F0
:10384C00134303607AE7A26B12781A73A36B0133EC
:10385C00A363E38F013B9BB2E387E38F002B9FD0E5
:10386C0023689A681542EED1FEF798FAC01B86427F
:10387C00F3D803203CE7A36B1A880233CA60A36316
:10388C00E38F013B9BB2E387E38F002B00D187E7EB
:10389C0021688B681D42EED1FEF780FAC01B864270
:1038AC00F2D8032024E72B780373A36B0133A363B3
:1038BC00E38F013B9BB2E38792E72B880235C36011
:1038CC00E38FA563013B9BB2E3874BE7FEF766FAF8
:1038DC00E38F002B00D163E7206850E7A36B1988B6
:1038EC000233C160A363E38F013B9BB2E387E38F99
:1038FC00002B00D154E783681A42EFD1FEF74EFA41
:10390C000320F5E6A16B09781973A36B0133A3634C
:10391C00E38F013B9BB2E387E38F002B00D13FE7A2
:10392C00236899680A42EDD1E8E7C046F0B5CE4667
:10393C001E005C2300B59146C25C04000D00012AF8
:10394C0000D19AE00122C254FEF728FA5D23E35C11
:10395C0007006268D9B2012B12D0822302205B00CF
:10396C009A4208D05D230122E2540022013BE2542A
:10397C0080BCB946F0BDA368002BF3D10429F1D16A
:10398C00002D00D17BE04B46002B00D177E0002EC0
:10399C0075D05D23E15C042901D00521E154494631
:1039AC000023216446212366665202396652E36481
:1039BC002365E023E168A563E687A687DB009942CF
:1039CC005FD923687D4859680140596040211868C7
:1039DC00014202D1186801431960002A00D0AEE000
:1039EC002A880235DA60E38FA563013B9BB2E3873B
:1039FC00069B013300D0A6E00123462699460225FA
:103A0C0029E023689A68154210D0E28F002A0DD065
:103A1C004A46012A0AD1A26B11880232D960A263EC
:103A2C00E28F013A92B2E287002291460122100005
:103A3C00996808400A420CD0A25B002A09D0814642
:103A4C00DA68236C1A8002332364A35B013B9BB2BC
:103A5C00A353FEF7A3F9E38F002BD2D1A35B002B6A
:103A6C00CFD13A0020000699FFF784FA002800D144
:103A7C0078E720230120236674E7022078E70120F1
:103A8C0070E780212368490158680143596040213F
:103A9C001868014202D1186801431960002A4BD101
:103AAC002A781A73A36B0133A363E38F013B9BB298
:103ABC00E3870123462699460225E38F002B02D18A
:103ACC00A35B002BCDD023689A68154212D0E28FED
:103ADC00002A0FD04A46012A0CD1A26B12781A7315
:103AEC0000229146A36B0133A363E38F013B9BB28E
:103AFC00E3872368012108009A68104011420DD019
:103B0C00A25B002A0AD081461B7B226C1370236CAB
:103B1C0001332364A35B013B9BB2A353FEF73EF935
:103B2C00069BC01B984203D30133C6D0032019E770
:103B3C00002BC2D1032015E7012EBAD1B0E7012E1C
:103B4C0000D055E74CE70123462699460225E38F22
:103B5C00002B03D1A35B002B00D182E723689A686A
:103B6C00154210D0E28F002A0DD04A46012A0AD104
:103B7C00A26B11880232D960A263E28F013A92B231
:103B8C00E28700229146012108009A6810401142F8
:103B9C000CD0A25B002A09D08146DA68236C1A800B
:103BAC0002332364A35B013B9BB2A353FEF7F6F8ED
:103BBC00069BC01B9842CAD30320D3E6FFEFFFFF3E
:103BCC00F0B54746CE461D00822380B517004268EB
:103BDC000400884685B05B009A4200D198E05C23D3
:103BEC00E25C012A00D1A0E00122E254FEF7D6F8F3
:103BFC005D22A35C0600D8B2012B0BD002205D2302
:103C0C000122E2540022013BE25405B0C0BCB9468B
:103C1C00B046F0BD4346002BF1D0002FEFD004236B
:103C2C00A35442460023226444222366A752023244
:103C3C00A752A363A387E387E3642365E023E168CA
:103C4C002268DB00994200D88CE013005068B84F12
:103C5C00384050608020A7680002874207D1402777
:103C6C001068B84310601068B24F384010604020A4
:103C7C001768384202D1176838431060E020C00042
:103C8C00814276D94621615A00291AD00120462159
:103C9C00002D00D1D5E0691C00D01DE10123462781
:103CAC00984641469368194241D0D168236C1980DB
:103CBC0002332364E15B013989B2E153E35B002BEE
:103CCC00EFD1822362685B009A4200D1BDE0FEF71F
:103CDC0065F8AF193F1AFEF761F8974B80461B68E1
:103CEC005B011B0D7B4303938023994622686B1C5D
:103CFC0024D1802193681942FCD1822362685B0035
:103D0C009A4200D1B1E0206E431E9841C0B276E7D2
:103D1C008368002B00D062E704225D33C2543B0061
:103D2C000A000095FFF702FE6FE702206DE7FEF731
:103D3C0035F8E35B002BC4D02268B2E793684A469F
:103D4C001A42DAD0FEF72AF84346C01AB84200D31A
:103D5C00A4E0039B5A1E93415B421F40039B013B13
:103D6C000393C3E780205768400138431300506029
:103D7C0070E74622A25A002AA3D001214622002D28
:103D8C004BD00122462790466A1C2CD141469A689A
:103D9C00114211D01B7B226C1370236C01332364F2
:103DAC00E15B013989B2E153E35B002B89D02368D5
:103DBC0041469A681142EDD1FDF7F0FFE35B002B11
:103DCC0000D17EE72368F3E71B7B226C1370236C16
:103DDC0001332364E35B013B9BB2E353E35B002BB6
:103DEC0000D16EE7236841469A681142ECD1FDF789
:103DFC00D5FF801B8542F1D8032000E71B7B206C8C
:103E0C000370236C01332364A35A013B9BB2A3526E
:103E1C00A35A002B00D154E7236898680142EDD1D6
:103E2C00FDF7BCFF0320EAE6D768236C1F80023342
:103E3C002364635A013B9BB26352635A002B00D13B
:103E4C003FE793681842EFD1EAE78022A368120299
:103E5C00934204D08022D200934200D037E7402115
:103E6C00226813688B43136031E78022A368120227
:103E7C00934204D08022D200934200D043E7320018
:103E8C0029002000FEF7DCFF002800D13BE72022B0
:103E9C00236E134323662023236634E7E021236833
:103EAC005A688A435A60822261685200914230D02B
:103EBC008021A26A89018A4206D119681F480140F3
:103ECC00196019680A431A605D230122E254236EBB
:103EDC001F3213432366DEE70122462790460DE08E
:103EEC00DA68236C1A8002332364E35B013B9BB2D8
:103EFC00E353E35B002B00D1E3E6236841469A6869
:103F0C001142EDD1FDF74AFF801B8542F1D8032009
:103F1C0075E68021A26809028A4203D08021C9007B
:103F2C008A42C5D140211A688A431A60C0E7C0464C
:103F3C00FFEFFFFFFFBFFFFF00000020FFDFFFFFD1
:103F4C00F8B55C230400C05C01285FD00120E0546C
:103F5C005C30235CDDB2012B05D002255C230022F2
:103F6C00E2542800F8BD0029F8D0002AF6D002331C
:103F7C0023540023A2872366E2874422236423650B
:103F8C00E364A163A3520232A3528023A2681B02F2
:103F9C009A4230D02268606D2B4B2C4E03632C4B15
:103FAC00E768C3622B4B436300238363536833403E
:103FBC005360E023DB009F4204D880238769DB0039
:103FCC009F422DD0E38F0C329BB2FEF753F80028A2
:103FDC001ED14022236819680A4202D119680A438B
:103FEC001A6020215A6800250A435A605A681E3903
:103FFC000A435A60B2E74020226813688343136077
:10400C0080231068DB0103431360C4E70225A8E793
:10401C001022236E134323665D230F3AE2549DE76F
:10402C00E38FDB0706D453681E405660E38F5B08B2
:10403C00E387C7E780235668DB0133435360E38F84
:10404C005B080133E387BDE7F12D0008FFBFFFFFDD
:10405C0091320008152E0008F8B504005C20255C90
:10406C00012D5BD0012525540130205CC6B20128FE
:10407C000ED004356768FF350220AF4203D05C23B5
:10408C000022E254F8BDA568002DF8D1042EF6D11B
:10409C00002941D0002A3FD0002B3DD05D20255C6B
:1040AC00042D01D0052525540020A1634421206650
:1040BC00A387E38722646352023163522168504D17
:1040CC00E0642065486828404860E020E568C0004E
:1040DC00854225D94B684B480340A06D4B605D234E
:1040EC00E35C042B60D0484B0363484BC362484BE2
:1040FC000C314363002383634633E35A9BB2FDF7D1
:10410C00B9FF031E2DD01022236E0120134323660A
:10411C005D230F3AE254B2E70120B0E70220B1E789
:10412C0080204D684001284348608020656DC000A8
:10413C00AD6985423DD08023A06DDB0085699D4231
:10414C00CDD14B682F4D2B404B604623E55AED07E4
:10415C0041D44D682F4E35404D60E55A6D08E552FF
:10416C00BDE701252268606D5168294351600363E6
:10417C00C36243638363E38FA16B9BB20C32FDF785
:10418C0079FF00281FD14022236819680A4202D106
:10419C0019680A431A6020215A680A435A605A68FF
:1041AC001E390A435A606AE71B4B03631B4BC362FD
:1041BC009DE7DB0719D44B68194803404B60E38F2C
:1041CC005B08E387B7E71022236E012013432366B5
:1041DC005D23E55453E780254E68AD0135434D60B2
:1041EC00E55A6D080135E55279E780234868DB0113
:1041FC0003434B60E38F5B080133E3879BE7C046C7
:10420C00FF9FFFFFFFEFFFFF092E0008013300089F
:10421C00152E0008FFDFFFFFFD2D0008DD33000821
:10422C00FFBFFFFFF8B5836804000F00002B05D11A
:10423C00822140684900884200D16EE05C20215CFC
:10424C00012900D175E0012121545C31655CEEB28D
:10425C00012D05D002265C230022E2543000F8BD6B
:10426C00002FF8D0002AF6D0583860540021403086
:10427C002166276422520230225280222568E16492
:10428C002165A187E187120293423DD06B683A4ABF
:10429C00E16813406B60E023DB0099422ED8802349
:1042AC0069685B010B436B608023A06DDB00816947
:1042BC00994248D0314B29000363314B3A00C36219
:1042CC00304B0C314363002383634633E35A9BB278
:1042DC00FDF7D0FE00282ED14022236819680A422F
:1042EC0002D119680A431A6020215A6800260A4331
:1042FC005A605A681F390A435A60ACE76B68224A05
:10430C00A06D13406B60D5E740222B6893432B6064
:10431C002B681E4A13402B60B8E701395D33FF3917
:10432C00E1542000130039003A00FFF795FE060017
:10433C0094E7022692E71022236E134323665D2333
:10434C000F3AE25487E76B680F490B406B604623CA
:10435C00E15AC90706D469680A406A60E25A5208F1
:10436C00E252A7E78022696892010A436A60E25A26
:10437C0052080132E2529DE7FFDFFFFFFD2D0008DE
:10438C00DD330008152E0008FFEFFFFFFFBFFFFF16
:10439C000121F0B50E00026804005568936885B0E1
:1043AC0098090640014205D1194203D0A8090142DF
:1043BC0000D088E00121980703D5E809014200D01C
:1043CC007DE00120070059090F40084251D06909CE
:1043DC0008424CD0002E0FD05D21615C032900D126
:1043EC0075E00420216E0143216600210091D16803
:1043FC0000919168009100990120216E40260143A3
:10440C0021660021029191681B0A029111681840E3
:10441C00B14311600299002847D1236E002B26D09E
:10442C00E02153688B4353605D23DF39E1545A3BE1
:10443C002B4254D05168A06D99435160002809D08B
:10444C00294B8363FDF77EFE002803D04022236EA8
:10445C0013432366606D002809D0234B8363FDF75B
:10446C0071FE002803D04022236E1343236605B04F
:10447C00F0BD002E13D069090842F8D05D21615CB3
:10448C00032924D00426216E1B0A31432166009790
:10449C00D16818400091916800910099BBE71B0A04
:1044AC001842E4D06B091842E1D00821236E0B436B
:1044BC0023660023039393680393039BADE72000CB
:1044CC00236D9847D3E72000E36C9847CFE7002390
:1044DC000193D368019393680193019BC7E7200074
:1044EC00E36F9847C3E7C046392E00085D23C05CD4
:1044FC00C0B270470D488546FCF70EFC0C480D49C0
:10450C000D4A002302E0D458C4500433C4188C4222
:10451C00F9D30A4A0A4C002301E013600432A24288
:10452C00FBD316F0B3FFFBF7F7FFFEE7009000207C
:10453C00000000209400002084F201089400002068
:10454C00107D0020FEE7000010B50022C9B209F072
:10455C00E3F910BD10B509B204F0A2FA10BDC046C3
:10456C0010B509B204F084FA10BDC04670B5050050
:10457C00006809F025FC040000222721006900F0E6
:10458C0051FB00222821606900F04CFB6069002877
:10459C0003D02823E35C9B070FD4002228210120A1
:1045AC006261635C834363542868A261383108F00C
:1045BC007FFE206904F028FF70BD09F08BFAECE750
:1045CC0070B5040009F0FCFB051E22D00669002E14
:1045DC000CD000222521300000F024FB2B69002B8D
:1045EC0004D000222621200000F01CFB2C61002CA2
:1045FC000CD000222721200000F014FB2B69002B8B
:10460C0004D000222821300000F00CFB200004F024
:10461C00FBFE70BD70B50500006809F0D1FB04000D
:10462C000FF008FA002808D00069606128680022A1
:10463C002621206100F0F6FA70BD0FF0FBF900287E
:10464C00F2D1F2E7030010B5002801D0186910BDB3
:10465C000FF0F0F903000020002BF7D1F7E7C0466C
:10466C00030010B5002801D0586910BD0FF0E2F915
:10467C0003000020002BF7D1F7E7C046030010B56C
:10468C00002801D0D86910BD0FF0D4F90300002028
:10469C00002BF7D1F7E7C046030010B5002801D076
:1046AC00186A10BD0FF0C6F903000020002BF7D1DB
:1046BC00F7E7C04670B504000D00002804D0636A0B
:1046CC00A560032B05D070BD0FF0B4F9041EFAD011
:1046DC00F5E7E368186809F0B1FB0028F3D1E3684B
:1046EC00586809F0ABFB0028EDD1E368986809F035
:1046FC00A5FB0028E7D1E36818680AF0A9FDE2E7FA
:10470C0010B5002801D0806810BD0FF093F9FAE7BE
:10471C00F0B5DE4657464E464546E0B5A1B0994643
:10472C002AAB1B78884692469B46060009F048FB4C
:10473C0004000FF07FF9071E00D187E0A0693F69E4
:10474C00002802D0B84200D089E06069A661002838
:10475C0004D02823E35C9B0700D596E04246042155
:10476C0000250A3AD2B291426D415A462823520092
:10477C001543E25C01398A430D4015430021E55491
:10478C0030000FF085FB0FF055F9002800D185E0C3
:10479C00006900210FF07CFB00220021300004F0A6
:1047AC0033F90FF047F9002800D17DE000690022B1
:1047BC00002104F029F900226021300008F078FD76
:1047CC000FF038F9002800D174E000690022602154
:1047DC0008F06EFD53464A4613435BD068460FF013
:1047EC003FFB894B10A80293884B009603935346CA
:1047FC000A934B465D420B950FF032FB23691B95D8
:10480C00109353461A9343460E2B0DD89900804BA8
:10481C005B589F467F4B200011930FF011F900233A
:10482C00404217931893199000222521380000F06C
:10483C00F9F968460FF016FC10A80FF013FC21B024
:10484C00F0BCBB46B246A946A046F0BD0FF0F2F84C
:10485C00071E00D072E7A069002800D175E7FFF7AA
:10486C00AFFE0021A0690FF013FB00220021A0690C
:10487C0004F0CAF800226021A06908F019FD282371
:10488C00E35C9B071CD4A7695FE709F023F90023BD
:10489C00636163E73000FFF793FED0E70FF0CAF8CF
:1048AC00002800D074E774E70FF0C4F8002800D09B
:1048BC007CE77CE70FF0BEF8002800D085E785E7A1
:1048CC00380009F007F9A7693FE7524B2000019324
:1048DC000FF0B6F800234042079008900993A3E725
:1048EC004D4B200011930FF0BFF800231990179334
:1048FC00189399E7494B0193002307930893FF33CF
:10490C00099391E7444E200001960FF0ADF8002575
:10491C004042079008902000099511960FF0A4F8DA
:10492C001795189519907FE73B4E200001960FF0D4
:10493C009BF80025079008902000099511960FF020
:10494C0093F840421795189519906DE7314E200059
:10495C0001960FF075F80025404207900890200052
:10496C00099511960FF06CF81795189519905BE74F
:10497C00284E200001960FF063F800250790089050
:10498C002000099511960FF05BF840421795189589
:10499C00199049E7204B200001930FF065F899E737
:1049AC001D4B200001930FF05FF800230790089037
:1049BC00099339E7194B1193FF231793189300238D
:1049CC00199331E7134B200001930FF039F80023B2
:1049DC0007900890099327E70E4B01930023079348
:1049EC000893099320E70C4B200011930FF03CF82F
:1049FC0015E7084B200011930FF022F800231990B3
:104A0C001793189310E7C046214600087945000813
:104A1C00FCB501086D4500086145000855450008C6
:104A2C00002300B583B0002200210093FFF770FE35
:104A3C0003B000BD030010B5002806D0AA22520016
:104A4C009B58D817C01AC00F10BD0EF0F3FF03000F
:104A5C000020002BF8D0F1E7F0B54546DE4657466E
:104A6C004E46E0B583B0050000F0FAFD00280AD0F0
:104A7C0000688368002B01D0297A98472B7E9A070F
:104A8C006AD4DB0766D46B6899681A000193002915
:104A9C003BD08B7E9B0638D0CB68002B00D1B9E085
:104AAC0002208146013880467F30002483461F68EF
:104ABC00002F04D0082018561E7A00280CDB013475
:104ACC008B7E9B069B0EA3424ED9CE686300B446E8
:104ADC001B199B006344EAE7802E04D0584686439A
:104AEC00287A8642EBD15B682800EB60B8474A46CF
:104AFC002B7E1A4230D142461A422BD16B680134BC
:104B0C0099681A0001930029DAD1019B1C68002CCA
:104B1C0015D15368002B1FD0297E49071CD4297A44
:104B2C002339012963D86B602800FFF795FF013802
:104B3C0043425841C0B210E02468002C42D0E368D4
:104B4C00002BF9D0002229002000EA6098472B7E28
:104B5C00DB0735D5002000E0012003B0F0BCBB46DC
:104B6C00B246A946A046F0BD01980468002CE6D1D7
:104B7C00002BCED0CB68002BCBD0012188461968F6
:104B8C0000240226002909D0082018561F7A002874
:104B9C0004DB002F1FD0287AB8421CD09068013457
:104BAC000028B6D0837E9B069B0E9C42B1D263003C
:104BBC001B199900C3685B1819680029E4D1EDE74B
:104BCC006B680193019A91680029A2D08B7E9B0699
:104BDC009B0ECFD19DE75B682800EB6088472B7E4E
:104BEC001E42B9D142461A42B4D16A68D6E7802136
:104BFC001000C90103F088F90028ADD02B7A113BC5
:104C0C00DBB21B2B03D8064A9B00D3589F466B681C
:104C1C005B6888E7019B1C68002C00D08FE7A9E734
:104C2C0038B6010810B588B0002817D06B46019033
:104C3C001972002303936B46049207221B7E084CC7
:104C4C0093436A4613762368009068460593226066
:104C5C00FFF702FF059B236008B010BD0120FBE7A6
:104C6C004804002010B50C0000280FD00068002864
:104C7C000AD0C368002BF9D000222100E2609847CB
:104C8C000120237E984310BD0120FCE74B68186877
:104C9C00EDE7C0460068704740687047037A7F2094
:104CAC001840704700697047C0687047024B1A681B
:104CBC00501C18607047C0466C0000200A4B1B68E3
:104CCC00002B10D0012105E01A68824205D05B69E7
:104CDC00002B08D05A688242F6D11A7E0A431A7603
:104CEC005B69002BF6D1704748040020F0B5C6462E
:104CFC0000B507000E001500984603F021F93F207F
:104D0C000100BC68A27E93069B0E013319408C46B1
:104D1C000B008243490013436144A376E068890089
:104D2C0010F0E6F8BB68E060DA68002A0ED0987ED6
:104D3C008006830E400EC018434680000C381018B5
:104D4C0006600572436080BCB846F0BDFEE7C04605
:104D5C00037A013B0F2B01D8006970470020FCE758
:104D6C00027A0300143A0020052A00D8186970470B
:104D7C00037A132B00D0704702691388181C1BB2DE
:104D8C008B4201DB1080F6E7081C1080F3E7C0466D
:104D9C00F8B5012357464E464546DE469B467F33C3
:104DAC00E0B589460600904600279A46C568002D56
:104DBC005ED0002F00D16DE029003000C047050007
:104DCC00B8424ED0002D53D0286803F0ABF85346B0
:104DDC000342ECD12C68002C05D110E0200009F026
:104DEC0017F8041E0BD00121200003F08DF80028C9
:104DFC00F4D00121200003F087F80028D7D1F36804
:104E0C00AB422ED0002B58D01B68002098460EF0D9
:104E1C009DFE041E00D195E000230027994604E076
:104E2C0020000EF093FE041E11D0200000F01EFC9A
:104E3C00236D9E42F4D1022800D188E0270004287B
:104E4C00EED120000EF082FEA146041EEDD14B46A1
:104E5C00002B68D04A460F214046FFF7E3FE01289D
:104E6C0027D00020F0BCBB46B246A946A046F8BDF0
:104E7C000822337E1A420FD1002FF2D15B46002B51
:104E8C00EFD03000C8470700002FEAD000233D00C8
:104E9C009B4699E72F008FE75B46002BE1D0300053
:104EAC00C847002305009B46002F00D08AE7070067
:104EBC00EAE7F368186804F0A7FA0020F5602F6899
:104ECC000EF044FE041E56D000230025984604E044
:104EDC0020000EF03BFE041E10D0200000F0C6FB9C
:104EEC00236D9E42F4D102283BD025000428EFD13B
:104EFC0020000EF02BFEA046041EEED14346002BE4
:104F0C001CD042460E213800FFF78CFE0128A8D198
:104F1C00F368186804F078FA3369002B30D030004D
:104F2C00984701209EE7002F0CD0B9460F214A4626
:104F3C004046FFF777FE012893D1BAE7002D1AD02F
:104F4C00A846DEE700200EF001FE814682E7A1466E
:104F5C000F214A464046FFF765FE012800D080E746
:104F6C00A7E7A0460E2142463800FFF75BFE01285A
:104F7C0000D076E7CCE700200EF0E8FD8046C0E7D5
:104F8C0001206FE70822037E70B51D071343040050
:104F9C00ED0F0376DAB25B0711D4D30722D4154A8E
:104FAC001549FFF7F5FE6369002B01D000281CD0D2
:104FBC000822237EED0093432B43237670BDD30749
:104FCC0009D40E4A0E49FFF7E3FE6369002BEFD0BC
:104FDC000028EDD102E04369002BE9D0002120002C
:104FEC009847E5E74369002BE2D001212000984760
:104FFC00DEE7C046394D0108214D0108414D01083D
:10500C002D4D0108F8B5CE46474680B5060002F096
:10501C0091FF051E65D0037EDA0762D49A0725D569
:10502C00022293430376C368002B1FD01B6898465B
:10503C00002B1BD000200EF089FD0023040000275C
:10504C00994600285CD100200EF080FD814603E0DB
:10505C004B46002B00D198E04A460E214046FFF704
:10506C00E1FD012802D1404604F0CEF928000FF0F2
:10507C0051FE041E06D134E0210028000FF056FE2C
:10508C00041E2ED023689E42F6D1EB68002B42D032
:10509C001F68BE423FD000200EF058FD0023061EB4
:1050AC009846994605D185E030000EF04FFD061E5E
:1050BC000DD0300000F0DAFA336D9D42F4D10228A5
:1050CC0000D175E0B0460428EED1B146ECE74B4672
:1050DC00002B63D04A460F213800FFF7A3FD0128AF
:1050EC0015D0C0BCB946B046F8BD022849D027003F
:1050FC00042800D1A14620000EF028FD041EA7D0E4
:10510C00200000F0B3FA236D9D42F4D1EDE7EB687B
:10511C00186804F079F92B69EC60002B02D0280098
:10512C009847EC682368002098460EF00FFD002687
:10513C0004000027002805D135E020000EF006FD04
:10514C00041E10D0200000F091FA236D9D42F4D182
:10515C00022818D026000428EFD120000EF0F6FC0F
:10516C002700041EEED1002F14D03A000E21404629
:10517C00FFF758FD0128B4D1EB68186804F044F926
:10518C00AFE7A14668E72700EFE7002F00D15AE709
:10519C00B94661E7002E06D03700E6E74346002B00
:1051AC0008D0C14696E700200EF0D0FC0700DCE7E3
:1051BC00B1468FE700200EF0C9FC81468AE7C04655
:1051CC0010B51C2101480FF043FD10BDE405002073
:1051DC0010B50A480FF044FD041E0ED004210FF048
:1051EC0037FD00230F22E36023616361237E2000DF
:1051FC0093430C221343237610BDFEE7E4050020F5
:10520C00014B18607047C0464C040020014B1868D5
:10521C007047C0464C04002070B504000D000028F7
:10522C000CD00FF077FD011E05D108E020000FF027
:10523C007DFD011E03D00B68AB42F7D170BD280079
:10524C0002F078FE00281AD0AB689A68002A03D0C6
:10525C00D2681268AA4210D020009C600FF018FD92
:10526C00061E09D0056020000FF054FD8642E5D1E2
:10527C002000FFF787FEE1E7FEE7FFF783FEAB6850
:10528C00002BE9D1280002F05BFEAB68E4E7C046D6
:10529C00F8B5CE46474680B5060002F04BFE051E1B
:1052AC001ED0C368002B02D01B68B3421CD0280050
:1052BC000FF030FD041E04D112E00FF037FD041E78
:1052CC000ED0236821002800B342F6D10FF0F8FC71
:1052DC0020000FF0F1FDB368002B01D000229A6082
:1052EC00C0BCB946B046F8BD0122037E1A4201D0BB
:1052FC009343037628000FF00DFDEA68824237D005
:10530C0008212B7E1C070B43E40F2B76D9B25B07CD
:10531C0010D4CB0754D42800364A3749FFF738FD50
:10532C006B69002B15D0002813D101212800984758
:10533C00EA680FE0CB073FD42800304A3049FFF72A
:10534C0027FD6B69002B04D0002802D10021280016
:10535C009847EA6808212B7EE4008B4323432B7685
:10536C00002AA4D013689E42A1D10023EB609EE7D3
:10537C0028000FF0D5FCEA689042C1D103680020E8
:10538C0099460EF0E3FB0023040098460027002802
:10539C0005D129E020000EF0D9FB041E14D020000A
:1053AC0000F064F9236D9D42F4D1022815D0A0467B
:1053BC000428EFD12700EDE76B69002BC6D1C9E7B4
:1053CC006B69002BB1D1C5E7002F08D03A000F2133
:1053DC004846FFF727FCEA68C2E72700F6E7434692
:1053EC00002B01D04746F1E700200EF0AFFB070081
:1053FC00ECE7C046394D0108214D0108414D01082B
:10540C002D4D010810B5002801D0FFF7FBFD10BD94
:10541C00037E10B50400DB0709D4084A0849FFF7DE
:10542C00B7FC6369002B01D0002803D010BD436981
:10543C00002BFBD0012120009847F7E7394D0108DC
:10544C00214D0108037E10B50400DB0709D4084A7E
:10545C000849FFF79DFC6369002B01D0002803D09D
:10546C0010BD4369002BFBD0002120009847F7E7C3
:10547C00414D01082D4D010810B582B00191002855
:10548C000BD0C368002B08D01C68002C05D08021E1
:10549C00200002F049FD002802D0012002B010BD0E
:1054AC000D21200001AAFFF7BDFBF7E7F0B5C646BA
:1054BC00050000B500283BD0037E9A07D20F8A4224
:1054CC0036D0012211400132490093430B4303763D
:1054DC00C368002B2CD01F68002F29D000200EF0A1
:1054EC0035FB0023040000269846002805D12CE04B
:1054FC0020000EF02BFB041E10D0200000F0B6F89C
:10550C00236D9D42F4D102281DD026000428EFD132
:10551C0020000EF01BFBA046041EEED14346002BD0
:10552C000DD042460E213800FFF77CFB012802D03B
:10553C0080BCB846F0BD380003F066FFF8E7002EDB
:10554C0003D0B046EDE7A046EBE700200EF0FEFAE4
:10555C008046E6E7002804D0C068002800D0006828
:10556C0070470020FCE7C046002803D0007E80076F
:10557C00C00F70470020FCE710B50FF0DFFB10BD2B
:10558C000822F0B5C64617004378040000B51F404A
:10559C001A4225D1006A304DA66A2860002812D024
:1055AC002E4B08211A689846FFF73CFB63789A0744
:1055BC0000D52F60012299070FD4002E2FD0002385
:1055CC00236223646364002E07D0200001F010FDD9
:1055DC0063789B0701D500232B6080BCB846F0BDD7
:1055EC001E4B03211A68006AFFF71CFB63789A07AD
:1055FC0011D49B07DA0F002BEFDB08216378164DD3
:10560C00A66A8B43226262622264626463702A60BF
:10561C00002EDAD1E1E700210F4A1160E9E71A42C6
:10562C000BD1434604211A682868FFF7FBFA63780C
:10563C009A0702D52E609B07CFD4434607211A68E0
:10564C002868FFF7EFFA63789A07B8D500222A602A
:10565C009B07C2D4B3E7C04654040020500400207A
:10566C00014B18687047C04650040020002802D037
:10567C000368187870470020FCE7C04670B50C0032
:10568C00002825D00222437913434371324B1B6807
:10569C00834213D003681B78013B012B00D970BDEA
:1056AC00002C3DD0036BA3420FD0436AA34209D018
:1056BC00836AA342F3D100238362F0E70022274BD5
:1056CC001A60E7E700234362F2E700230363ECE789
:1056DC0000200EF03BFA00281ED0002C29D0022509
:1056EC00002603E00EF032FA002815D043792B4344
:1056FC00437103681B78013B012BF3D8036B9C426D
:10570C0015D0436A9C4210D0836A9C42EAD18662CF
:10571C000EF01CFA0028E9D10022104B1A60BEE7EB
:10572C000023046344628362B9E74662ECE70663D4
:10573C00E7E70224002503E00EF008FA0028EBD07E
:10574C0043792343437103681B78013B012BF3D846
:10575C00056345628562EFE7500400205404002085
:10576C00FD2203681B78023B134200D10165704790
:10577C00002811D0022203681B789343012B04D01C
:10578C0001235B420B804B8070470822835E0B80A9
:10579C000A22835E4B80F7E708804880F4E7C04616
:1057AC00031E0BD002210268002012788A43012AC2
:1057BC0003D13F32985C0007000F70470020FCE7D4
:1057CC00031E08D002210268002012788A43012AA5
:1057DC0000D1D86A70470020FCE7C04600230B803C
:1057EC004B8000280BD0022203681B789343012BBB
:1057FC0005D11422835E0B801622835E4B8070478A
:10580C00014B18687047C0465404002070B50C005A
:10581C0082B00121050002F077FB002839D1042267
:10582C00210001A815F056FE00220123280001A931
:10583C0003F07CFB01A9280004F0DEFF0600280021
:10584C00002201A910300EF06BFD002814D02800A6
:10585C0008F0F4FA441E0AD4AB68A2001B6801A934
:10586C00D058FFF7D3FF002804D1013CF4D2280014
:10587C00002E0ED002B070BD80212800090302F06A
:10588C0043FB0028F3D0280008F0D8FA441EE3D5D7
:10589C00EDE70020EEE7C046F0B54546DE4657463C
:1058AC004E460400E0B5006AA84D637883B02860CA
:1058BC001B0766D4A64E33681B68DB689846002825
:1058CC0000D1DFE0A36A002B00D1D2E0271D012319
:1058DC000122390003F02AFB206A2B68984213D06E
:1058EC003A68A260002854D003213268FFF79AF975
:1058FC0063789A074CD500229B072A60DA0F002B9D
:10590C003FDB0023226262622289A1886089891AA6
:10591C00E28809B2121A1827E05F21824018C10FE1
:10592C000918491021831A20215E12B2891862824B
:10593C00CA0F521852106283A269E261002B20D068
:10594C00180002213268FFF76DF963789A0700D5C9
:10595C0089E00822170033685B791F401A4210D186
:10596C00200001F0CDF802231800617808400B42AA
:10597C0000D02F60012217004B081F401A4200D1A3
:10598C009EE003B0F0BCBB46B246A946A046F0BDB3
:10599C002B6823626362002BB6D00EF011F9012242
:1059AC0000276378206493436370A38F01215B0A03
:1059BC005B02A387326828686761A7632761FFF7DA
:1059CC0031F963789A0702D52F609B07D9D4082246
:1059DC00110037687B79194088461A42D1D10421CD
:1059EC00286802F091FA002833D028683B6B834278
:1059FC002FD002F09FFA8146386B002800D110E1BD
:105A0C0002F098FA8246814500D13EE1031E386BC4
:105A1C0000D158E100280AD010213268FFF702F9B2
:105A2C007B799A0703D542462A609B0711D44B46D3
:105A3C00002B00D0F8E00E2132682868FFF7F2F84E
:105A4C007B799A0703D54A462A609B0701D42B68B9
:105A5C003B6363789A0704D500222A609B0700D524
:105A6C008FE72B6850E700222A609B0700D588E758
:105A7C006FE78021890102F047FA002802D02868DC
:105A8C00271D24E74046271DFEF706FE3900FFF7C9
:105A9C00BDFE286000283FD0636A002B00D116E7BA
:105AAC0000232000A361984601F0A2FA63789A07BC
:105ABC0004D542462A609B0700D562E7286806E7B2
:105ACC00A36A002B39D0002800D15AE72F60002B95
